{
  "_format": "hh-sol-artifact-1",
  "contractName": "ERC4626Linear",
  "sourceName": "contracts/resources/basic/ERC4626Linear.sol",
  "abi": [
    {
      "inputs": [
        {
          "internalType": "string",
          "name": "name",
          "type": "string"
        },
        {
          "internalType": "string",
          "name": "symbol",
          "type": "string"
        },
        {
          "internalType": "contract IERC20",
          "name": "reserveToken",
          "type": "address"
        }
      ],
      "stateMutability": "nonpayable",
      "type": "constructor"
    },
    {
      "inputs": [
        {
          "internalType": "address",
          "name": "target",
          "type": "address"
        }
      ],
      "name": "AddressEmptyCode",
      "type": "error"
    },
    {
      "inputs": [
        {
          "internalType": "address",
          "name": "account",
          "type": "address"
        }
      ],
      "name": "AddressInsufficientBalance",
      "type": "error"
    },
    {
      "inputs": [
        {
          "internalType": "address",
          "name": "spender",
          "type": "address"
        },
        {
          "internalType": "uint256",
          "name": "allowance",
          "type": "uint256"
        },
        {
          "internalType": "uint256",
          "name": "needed",
          "type": "uint256"
        }
      ],
      "name": "ERC20InsufficientAllowance",
      "type": "error"
    },
    {
      "inputs": [
        {
          "internalType": "address",
          "name": "sender",
          "type": "address"
        },
        {
          "internalType": "uint256",
          "name": "balance",
          "type": "uint256"
        },
        {
          "internalType": "uint256",
          "name": "needed",
          "type": "uint256"
        }
      ],
      "name": "ERC20InsufficientBalance",
      "type": "error"
    },
    {
      "inputs": [
        {
          "internalType": "address",
          "name": "approver",
          "type": "address"
        }
      ],
      "name": "ERC20InvalidApprover",
      "type": "error"
    },
    {
      "inputs": [
        {
          "internalType": "address",
          "name": "receiver",
          "type": "address"
        }
      ],
      "name": "ERC20InvalidReceiver",
      "type": "error"
    },
    {
      "inputs": [
        {
          "internalType": "address",
          "name": "sender",
          "type": "address"
        }
      ],
      "name": "ERC20InvalidSender",
      "type": "error"
    },
    {
      "inputs": [
        {
          "internalType": "address",
          "name": "spender",
          "type": "address"
        }
      ],
      "name": "ERC20InvalidSpender",
      "type": "error"
    },
    {
      "inputs": [
        {
          "internalType": "address",
          "name": "receiver",
          "type": "address"
        },
        {
          "internalType": "uint256",
          "name": "assets",
          "type": "uint256"
        },
        {
          "internalType": "uint256",
          "name": "max",
          "type": "uint256"
        }
      ],
      "name": "ERC4626ExceededMaxDeposit",
      "type": "error"
    },
    {
      "inputs": [
        {
          "internalType": "address",
          "name": "receiver",
          "type": "address"
        },
        {
          "internalType": "uint256",
          "name": "shares",
          "type": "uint256"
        },
        {
          "internalType": "uint256",
          "name": "max",
          "type": "uint256"
        }
      ],
      "name": "ERC4626ExceededMaxMint",
      "type": "error"
    },
    {
      "inputs": [
        {
          "internalType": "address",
          "name": "owner",
          "type": "address"
        },
        {
          "internalType": "uint256",
          "name": "shares",
          "type": "uint256"
        },
        {
          "internalType": "uint256",
          "name": "max",
          "type": "uint256"
        }
      ],
      "name": "ERC4626ExceededMaxRedeem",
      "type": "error"
    },
    {
      "inputs": [
        {
          "internalType": "address",
          "name": "owner",
          "type": "address"
        },
        {
          "internalType": "uint256",
          "name": "assets",
          "type": "uint256"
        },
        {
          "internalType": "uint256",
          "name": "max",
          "type": "uint256"
        }
      ],
      "name": "ERC4626ExceededMaxWithdraw",
      "type": "error"
    },
    {
      "inputs": [],
      "name": "FailedInnerCall",
      "type": "error"
    },
    {
      "inputs": [],
      "name": "MathOverflowedMulDiv",
      "type": "error"
    },
    {
      "inputs": [
        {
          "internalType": "address",
          "name": "token",
          "type": "address"
        }
      ],
      "name": "SafeERC20FailedOperation",
      "type": "error"
    },
    {
      "anonymous": false,
      "inputs": [
        {
          "indexed": true,
          "internalType": "address",
          "name": "owner",
          "type": "address"
        },
        {
          "indexed": true,
          "internalType": "address",
          "name": "spender",
          "type": "address"
        },
        {
          "indexed": false,
          "internalType": "uint256",
          "name": "value",
          "type": "uint256"
        }
      ],
      "name": "Approval",
      "type": "event"
    },
    {
      "anonymous": false,
      "inputs": [
        {
          "indexed": true,
          "internalType": "address",
          "name": "sender",
          "type": "address"
        },
        {
          "indexed": true,
          "internalType": "address",
          "name": "owner",
          "type": "address"
        },
        {
          "indexed": false,
          "internalType": "uint256",
          "name": "assets",
          "type": "uint256"
        },
        {
          "indexed": false,
          "internalType": "uint256",
          "name": "shares",
          "type": "uint256"
        }
      ],
      "name": "Deposit",
      "type": "event"
    },
    {
      "anonymous": false,
      "inputs": [
        {
          "indexed": true,
          "internalType": "address",
          "name": "from",
          "type": "address"
        },
        {
          "indexed": true,
          "internalType": "address",
          "name": "to",
          "type": "address"
        },
        {
          "indexed": false,
          "internalType": "uint256",
          "name": "value",
          "type": "uint256"
        }
      ],
      "name": "Transfer",
      "type": "event"
    },
    {
      "anonymous": false,
      "inputs": [
        {
          "indexed": true,
          "internalType": "address",
          "name": "sender",
          "type": "address"
        },
        {
          "indexed": true,
          "internalType": "address",
          "name": "receiver",
          "type": "address"
        },
        {
          "indexed": true,
          "internalType": "address",
          "name": "owner",
          "type": "address"
        },
        {
          "indexed": false,
          "internalType": "uint256",
          "name": "assets",
          "type": "uint256"
        },
        {
          "indexed": false,
          "internalType": "uint256",
          "name": "shares",
          "type": "uint256"
        }
      ],
      "name": "Withdraw",
      "type": "event"
    },
    {
      "inputs": [
        {
          "internalType": "address",
          "name": "owner",
          "type": "address"
        },
        {
          "internalType": "address",
          "name": "spender",
          "type": "address"
        }
      ],
      "name": "allowance",
      "outputs": [
        {
          "internalType": "uint256",
          "name": "",
          "type": "uint256"
        }
      ],
      "stateMutability": "view",
      "type": "function"
    },
    {
      "inputs": [
        {
          "internalType": "address",
          "name": "spender",
          "type": "address"
        },
        {
          "internalType": "uint256",
          "name": "value",
          "type": "uint256"
        }
      ],
      "name": "approve",
      "outputs": [
        {
          "internalType": "bool",
          "name": "",
          "type": "bool"
        }
      ],
      "stateMutability": "nonpayable",
      "type": "function"
    },
    {
      "inputs": [],
      "name": "asset",
      "outputs": [
        {
          "internalType": "address",
          "name": "",
          "type": "address"
        }
      ],
      "stateMutability": "view",
      "type": "function"
    },
    {
      "inputs": [
        {
          "internalType": "address",
          "name": "account",
          "type": "address"
        }
      ],
      "name": "balanceOf",
      "outputs": [
        {
          "internalType": "uint256",
          "name": "",
          "type": "uint256"
        }
      ],
      "stateMutability": "view",
      "type": "function"
    },
    {
      "inputs": [
        {
          "internalType": "uint256",
          "name": "shares",
          "type": "uint256"
        }
      ],
      "name": "convertToAssets",
      "outputs": [
        {
          "internalType": "uint256",
          "name": "",
          "type": "uint256"
        }
      ],
      "stateMutability": "view",
      "type": "function"
    },
    {
      "inputs": [
        {
          "internalType": "uint256",
          "name": "assets",
          "type": "uint256"
        }
      ],
      "name": "convertToShares",
      "outputs": [
        {
          "internalType": "uint256",
          "name": "",
          "type": "uint256"
        }
      ],
      "stateMutability": "view",
      "type": "function"
    },
    {
      "inputs": [],
      "name": "decimals",
      "outputs": [
        {
          "internalType": "uint8",
          "name": "",
          "type": "uint8"
        }
      ],
      "stateMutability": "view",
      "type": "function"
    },
    {
      "inputs": [
        {
          "internalType": "uint256",
          "name": "assets",
          "type": "uint256"
        },
        {
          "internalType": "address",
          "name": "receiver",
          "type": "address"
        }
      ],
      "name": "deposit",
      "outputs": [
        {
          "internalType": "uint256",
          "name": "",
          "type": "uint256"
        }
      ],
      "stateMutability": "nonpayable",
      "type": "function"
    },
    {
      "inputs": [
        {
          "internalType": "address",
          "name": "",
          "type": "address"
        }
      ],
      "name": "maxDeposit",
      "outputs": [
        {
          "internalType": "uint256",
          "name": "",
          "type": "uint256"
        }
      ],
      "stateMutability": "view",
      "type": "function"
    },
    {
      "inputs": [
        {
          "internalType": "address",
          "name": "",
          "type": "address"
        }
      ],
      "name": "maxMint",
      "outputs": [
        {
          "internalType": "uint256",
          "name": "",
          "type": "uint256"
        }
      ],
      "stateMutability": "view",
      "type": "function"
    },
    {
      "inputs": [
        {
          "internalType": "address",
          "name": "owner",
          "type": "address"
        }
      ],
      "name": "maxRedeem",
      "outputs": [
        {
          "internalType": "uint256",
          "name": "",
          "type": "uint256"
        }
      ],
      "stateMutability": "view",
      "type": "function"
    },
    {
      "inputs": [
        {
          "internalType": "address",
          "name": "owner",
          "type": "address"
        }
      ],
      "name": "maxWithdraw",
      "outputs": [
        {
          "internalType": "uint256",
          "name": "",
          "type": "uint256"
        }
      ],
      "stateMutability": "view",
      "type": "function"
    },
    {
      "inputs": [
        {
          "internalType": "uint256",
          "name": "shares",
          "type": "uint256"
        },
        {
          "internalType": "address",
          "name": "receiver",
          "type": "address"
        }
      ],
      "name": "mint",
      "outputs": [
        {
          "internalType": "uint256",
          "name": "",
          "type": "uint256"
        }
      ],
      "stateMutability": "nonpayable",
      "type": "function"
    },
    {
      "inputs": [],
      "name": "name",
      "outputs": [
        {
          "internalType": "string",
          "name": "",
          "type": "string"
        }
      ],
      "stateMutability": "view",
      "type": "function"
    },
    {
      "inputs": [
        {
          "internalType": "uint256",
          "name": "assets",
          "type": "uint256"
        }
      ],
      "name": "previewDeposit",
      "outputs": [
        {
          "internalType": "uint256",
          "name": "",
          "type": "uint256"
        }
      ],
      "stateMutability": "view",
      "type": "function"
    },
    {
      "inputs": [
        {
          "internalType": "uint256",
          "name": "shares",
          "type": "uint256"
        }
      ],
      "name": "previewMint",
      "outputs": [
        {
          "internalType": "uint256",
          "name": "",
          "type": "uint256"
        }
      ],
      "stateMutability": "view",
      "type": "function"
    },
    {
      "inputs": [
        {
          "internalType": "uint256",
          "name": "shares",
          "type": "uint256"
        }
      ],
      "name": "previewRedeem",
      "outputs": [
        {
          "internalType": "uint256",
          "name": "",
          "type": "uint256"
        }
      ],
      "stateMutability": "view",
      "type": "function"
    },
    {
      "inputs": [
        {
          "internalType": "uint256",
          "name": "assets",
          "type": "uint256"
        }
      ],
      "name": "previewWithdraw",
      "outputs": [
        {
          "internalType": "uint256",
          "name": "",
          "type": "uint256"
        }
      ],
      "stateMutability": "view",
      "type": "function"
    },
    {
      "inputs": [
        {
          "internalType": "uint256",
          "name": "shares",
          "type": "uint256"
        },
        {
          "internalType": "address",
          "name": "receiver",
          "type": "address"
        },
        {
          "internalType": "address",
          "name": "owner",
          "type": "address"
        }
      ],
      "name": "redeem",
      "outputs": [
        {
          "internalType": "uint256",
          "name": "",
          "type": "uint256"
        }
      ],
      "stateMutability": "nonpayable",
      "type": "function"
    },
    {
      "inputs": [],
      "name": "symbol",
      "outputs": [
        {
          "internalType": "string",
          "name": "",
          "type": "string"
        }
      ],
      "stateMutability": "view",
      "type": "function"
    },
    {
      "inputs": [],
      "name": "totalAssets",
      "outputs": [
        {
          "internalType": "uint256",
          "name": "",
          "type": "uint256"
        }
      ],
      "stateMutability": "view",
      "type": "function"
    },
    {
      "inputs": [],
      "name": "totalSupply",
      "outputs": [
        {
          "internalType": "uint256",
          "name": "",
          "type": "uint256"
        }
      ],
      "stateMutability": "view",
      "type": "function"
    },
    {
      "inputs": [
        {
          "internalType": "address",
          "name": "to",
          "type": "address"
        },
        {
          "internalType": "uint256",
          "name": "value",
          "type": "uint256"
        }
      ],
      "name": "transfer",
      "outputs": [
        {
          "internalType": "bool",
          "name": "",
          "type": "bool"
        }
      ],
      "stateMutability": "nonpayable",
      "type": "function"
    },
    {
      "inputs": [
        {
          "internalType": "address",
          "name": "from",
          "type": "address"
        },
        {
          "internalType": "address",
          "name": "to",
          "type": "address"
        },
        {
          "internalType": "uint256",
          "name": "value",
          "type": "uint256"
        }
      ],
      "name": "transferFrom",
      "outputs": [
        {
          "internalType": "bool",
          "name": "",
          "type": "bool"
        }
      ],
      "stateMutability": "nonpayable",
      "type": "function"
    },
    {
      "inputs": [
        {
          "internalType": "uint256",
          "name": "assets",
          "type": "uint256"
        },
        {
          "internalType": "address",
          "name": "receiver",
          "type": "address"
        },
        {
          "internalType": "address",
          "name": "owner",
          "type": "address"
        }
      ],
      "name": "withdraw",
      "outputs": [
        {
          "internalType": "uint256",
          "name": "",
          "type": "uint256"
        }
      ],
      "stateMutability": "nonpayable",
      "type": "function"
    }
  ],
  "bytecode": "0x60c06040523480156200001157600080fd5b5060405162002b9238038062002b928339818101604052810190620000379190620003fb565b80838381600390816200004b9190620006e0565b5080600490816200005d9190620006e0565b5050506000806200007483620000d560201b60201c565b91509150816200008657601262000088565b805b60ff1660a08160ff16815250508273ffffffffffffffffffffffffffffffffffffffff1660808173ffffffffffffffffffffffffffffffffffffffff168152505050505050505062000890565b6000806000808473ffffffffffffffffffffffffffffffffffffffff1660405160240160405160208183030381529060405263313ce56760e01b6020820180517bffffffffffffffffffffffffffffffffffffffffffffffffffffffff83818316178352505050506040516200014c919062000814565b600060405180830381855afa9150503d806000811462000189576040519150601f19603f3d011682016040523d82523d6000602084013e6200018e565b606091505b5091509150818015620001a357506020815110155b15620001e057600081806020019051810190620001c191906200085e565b905060ff80168111620001de5760018194509450505050620001ea565b505b6000809350935050505b915091565b6000604051905090565b600080fd5b600080fd5b600080fd5b600080fd5b6000601f19601f8301169050919050565b7f4e487b7100000000000000000000000000000000000000000000000000000000600052604160045260246000fd5b62000258826200020d565b810181811067ffffffffffffffff821117156200027a57620002796200021e565b5b80604052505050565b60006200028f620001ef565b90506200029d82826200024d565b919050565b600067ffffffffffffffff821115620002c057620002bf6200021e565b5b620002cb826200020d565b9050602081019050919050565b60005b83811015620002f8578082015181840152602081019050620002db565b60008484015250505050565b60006200031b6200031584620002a2565b62000283565b9050828152602081018484840111156200033a576200033962000208565b5b62000347848285620002d8565b509392505050565b600082601f83011262000367576200036662000203565b5b81516200037984826020860162000304565b91505092915050565b600073ffffffffffffffffffffffffffffffffffffffff82169050919050565b6000620003af8262000382565b9050919050565b6000620003c382620003a2565b9050919050565b620003d581620003b6565b8114620003e157600080fd5b50565b600081519050620003f581620003ca565b92915050565b600080600060608486031215620004175762000416620001f9565b5b600084015167ffffffffffffffff811115620004385762000437620001fe565b5b62000446868287016200034f565b935050602084015167ffffffffffffffff8111156200046a5762000469620001fe565b5b62000478868287016200034f565b92505060406200048b86828701620003e4565b9150509250925092565b600081519050919050565b7f4e487b7100000000000000000000000000000000000000000000000000000000600052602260045260246000fd5b60006002820490506001821680620004e857607f821691505b602082108103620004fe57620004fd620004a0565b5b50919050565b60008190508160005260206000209050919050565b60006020601f8301049050919050565b600082821b905092915050565b600060088302620005687fffffffffffffffffffffffffffffffffffffffffffffffffffffffffffffffff8262000529565b62000574868362000529565b95508019841693508086168417925050509392505050565b6000819050919050565b6000819050919050565b6000620005c1620005bb620005b5846200058c565b62000596565b6200058c565b9050919050565b6000819050919050565b620005dd83620005a0565b620005f5620005ec82620005c8565b84845462000536565b825550505050565b600090565b6200060c620005fd565b62000619818484620005d2565b505050565b5b8181101562000641576200063560008262000602565b6001810190506200061f565b5050565b601f82111562000690576200065a8162000504565b620006658462000519565b8101602085101562000675578190505b6200068d620006848562000519565b8301826200061e565b50505b505050565b600082821c905092915050565b6000620006b56000198460080262000695565b1980831691505092915050565b6000620006d08383620006a2565b9150826002028217905092915050565b620006eb8262000495565b67ffffffffffffffff8111156200070757620007066200021e565b5b620007138254620004cf565b6200072082828562000645565b600060209050601f83116001811462000758576000841562000743578287015190505b6200074f8582620006c2565b865550620007bf565b601f198416620007688662000504565b60005b8281101562000792578489015182556001820191506020850194506020810190506200076b565b86831015620007b25784890151620007ae601f891682620006a2565b8355505b6001600288020188555050505b505050505050565b600081519050919050565b600081905092915050565b6000620007ea82620007c7565b620007f68185620007d2565b935062000808818560208601620002d8565b80840191505092915050565b6000620008228284620007dd565b915081905092915050565b62000838816200058c565b81146200084457600080fd5b50565b60008151905062000858816200082d565b92915050565b600060208284031215620008775762000876620001f9565b5b6000620008878482850162000847565b91505092915050565b60805160a0516122c7620008cb600039600061077f0152600081816105c0015281816107b101528181610e950152610f8101526122c76000f3fe608060405234801561001057600080fd5b50600436106101735760003560e01c806370a08231116100de578063ba08765211610097578063ce96cb7711610071578063ce96cb77146104fc578063d905777e1461052c578063dd62ed3e1461055c578063ef8b30f71461058c57610173565b8063ba0876521461046c578063c63d75b61461049c578063c6e6f592146104cc57610173565b806370a082311461035e57806394bf804d1461038e57806395d89b41146103be578063a9059cbb146103dc578063b3d7f6b91461040c578063b460af941461043c57610173565b806323b872dd1161013057806323b872dd14610262578063313ce5671461029257806338d52e0f146102b0578063402d267d146102ce5780634cdad506146102fe5780636e553f651461032e57610173565b806301e1d1141461017857806306fdde031461019657806307a2d13a146101b4578063095ea7b3146101e45780630a28a4771461021457806318160ddd14610244575b600080fd5b6101806105bc565b60405161018d9190611a20565b60405180910390f35b61019e61065d565b6040516101ab9190611acb565b60405180910390f35b6101ce60048036038101906101c99190611b1e565b6106ef565b6040516101db9190611a20565b60405180910390f35b6101fe60048036038101906101f99190611ba9565b610703565b60405161020b9190611c04565b60405180910390f35b61022e60048036038101906102299190611b1e565b610726565b60405161023b9190611a20565b60405180910390f35b61024c61073a565b6040516102599190611a20565b60405180910390f35b61027c60048036038101906102779190611c1f565b610744565b6040516102899190611c04565b60405180910390f35b61029a610773565b6040516102a79190611c8e565b60405180910390f35b6102b86107ad565b6040516102c59190611cb8565b60405180910390f35b6102e860048036038101906102e39190611cd3565b6107d5565b6040516102f59190611a20565b60405180910390f35b61031860048036038101906103139190611b1e565b6107ff565b6040516103259190611a20565b60405180910390f35b61034860048036038101906103439190611d00565b610813565b6040516103559190611a20565b60405180910390f35b61037860048036038101906103739190611cd3565b610895565b6040516103859190611a20565b60405180910390f35b6103a860048036038101906103a39190611d00565b6108dd565b6040516103b59190611a20565b60405180910390f35b6103c661095f565b6040516103d39190611acb565b60405180910390f35b6103f660048036038101906103f19190611ba9565b6109f1565b6040516104039190611c04565b60405180910390f35b61042660048036038101906104219190611b1e565b610a14565b6040516104339190611a20565b60405180910390f35b61045660048036038101906104519190611d40565b610a28565b6040516104639190611a20565b60405180910390f35b61048660048036038101906104819190611d40565b610aac565b6040516104939190611a20565b60405180910390f35b6104b660048036038101906104b19190611cd3565b610b30565b6040516104c39190611a20565b60405180910390f35b6104e660048036038101906104e19190611b1e565b610b5a565b6040516104f39190611a20565b60405180910390f35b61051660048036038101906105119190611cd3565b610b6e565b6040516105239190611a20565b60405180910390f35b61054660048036038101906105419190611cd3565b610b8a565b6040516105539190611a20565b60405180910390f35b61057660048036038101906105719190611d93565b610b9c565b6040516105839190611a20565b60405180910390f35b6105a660048036038101906105a19190611b1e565b610c23565b6040516105b39190611a20565b60405180910390f35b60007f000000000000000000000000000000000000000000000000000000000000000073ffffffffffffffffffffffffffffffffffffffff166370a08231306040518263ffffffff1660e01b81526004016106179190611cb8565b602060405180830381865afa158015610634573d6000803e3d6000fd5b505050506040513d601f19601f820116820180604052508101906106589190611de8565b905090565b60606003805461066c90611e44565b80601f016020809104026020016040519081016040528092919081815260200182805461069890611e44565b80156106e55780601f106106ba576101008083540402835291602001916106e5565b820191906000526020600020905b8154815290600101906020018083116106c857829003601f168201915b5050505050905090565b60006106fc826000610c37565b9050919050565b60008061070e610c90565b905061071b818585610c98565b600191505092915050565b6000610733826001610caa565b9050919050565b6000600254905090565b60008061074f610c90565b905061075c858285610d03565b610767858585610d97565b60019150509392505050565b600061077d610e8b565b7f00000000000000000000000000000000000000000000000000000000000000006107a89190611ea4565b905090565b60007f0000000000000000000000000000000000000000000000000000000000000000905090565b60007fffffffffffffffffffffffffffffffffffffffffffffffffffffffffffffffff9050919050565b600061080c826000610c37565b9050919050565b60008061081f836107d5565b90508084111561086a578284826040517f79012fb200000000000000000000000000000000000000000000000000000000815260040161086193929190611ed9565b60405180910390fd5b600061087585610c23565b905061088a610882610c90565b858784610e90565b809250505092915050565b60008060008373ffffffffffffffffffffffffffffffffffffffff1673ffffffffffffffffffffffffffffffffffffffff168152602001908152602001600020549050919050565b6000806108e983610b30565b905080841115610934578284826040517f284ff66700000000000000000000000000000000000000000000000000000000815260040161092b93929190611ed9565b60405180910390fd5b600061093f85610a14565b905061095461094c610c90565b858388610e90565b809250505092915050565b60606004805461096e90611e44565b80601f016020809104026020016040519081016040528092919081815260200182805461099a90611e44565b80156109e75780601f106109bc576101008083540402835291602001916109e7565b820191906000526020600020905b8154815290600101906020018083116109ca57829003601f168201915b5050505050905090565b6000806109fc610c90565b9050610a09818585610d97565b600191505092915050565b6000610a21826001610c37565b9050919050565b600080610a3483610b6e565b905080851115610a7f578285826040517ffe9cceec000000000000000000000000000000000000000000000000000000008152600401610a7693929190611ed9565b60405180910390fd5b6000610a8a86610726565b9050610aa0610a97610c90565b86868985610f33565b80925050509392505050565b600080610ab883610b8a565b905080851115610b03578285826040517fb94abeec000000000000000000000000000000000000000000000000000000008152600401610afa93929190611ed9565b60405180910390fd5b6000610b0e866107ff565b9050610b24610b1b610c90565b8686848a610f33565b80925050509392505050565b60007fffffffffffffffffffffffffffffffffffffffffffffffffffffffffffffffff9050919050565b6000610b67826000610caa565b9050919050565b6000610b83610b7c83610895565b6000610c37565b9050919050565b6000610b9582610895565b9050919050565b6000600160008473ffffffffffffffffffffffffffffffffffffffff1673ffffffffffffffffffffffffffffffffffffffff16815260200190815260200160002060008373ffffffffffffffffffffffffffffffffffffffff1673ffffffffffffffffffffffffffffffffffffffff16815260200190815260200160002054905092915050565b6000610c30826000610caa565b9050919050565b6000610c886001610c466105bc565b610c509190611f10565b610c58610e8b565b600a610c649190612077565b610c6c61073a565b610c769190611f10565b848661102c909392919063ffffffff16565b905092915050565b600033905090565b610ca58383836001611083565b505050565b6000610cfb610cb7610e8b565b600a610cc39190612077565b610ccb61073a565b610cd59190611f10565b6001610cdf6105bc565b610ce99190611f10565b848661102c909392919063ffffffff16565b905092915050565b6000610d0f8484610b9c565b90507fffffffffffffffffffffffffffffffffffffffffffffffffffffffffffffffff8114610d915781811015610d81578281836040517ffb8f41b2000000000000000000000000000000000000000000000000000000008152600401610d7893929190611ed9565b60405180910390fd5b610d9084848484036000611083565b5b50505050565b600073ffffffffffffffffffffffffffffffffffffffff168373ffffffffffffffffffffffffffffffffffffffff1603610e095760006040517f96c6fd1e000000000000000000000000000000000000000000000000000000008152600401610e009190611cb8565b60405180910390fd5b600073ffffffffffffffffffffffffffffffffffffffff168273ffffffffffffffffffffffffffffffffffffffff1603610e7b5760006040517fec442f05000000000000000000000000000000000000000000000000000000008152600401610e729190611cb8565b60405180910390fd5b610e8683838361125a565b505050565b600090565b610ebc7f000000000000000000000000000000000000000000000000000000000000000085308561147f565b610ec68382611501565b8273ffffffffffffffffffffffffffffffffffffffff168473ffffffffffffffffffffffffffffffffffffffff167fdcbc1c05240f31ff3ad067ef1ee35ce4997762752e3a095284754544f4c709d78484604051610f259291906120c2565b60405180910390a350505050565b8273ffffffffffffffffffffffffffffffffffffffff168573ffffffffffffffffffffffffffffffffffffffff1614610f7257610f71838683610d03565b5b610f7c8382611583565b610fa77f00000000000000000000000000000000000000000000000000000000000000008584611605565b8273ffffffffffffffffffffffffffffffffffffffff168473ffffffffffffffffffffffffffffffffffffffff168673ffffffffffffffffffffffffffffffffffffffff167ffbde797d201c681b91056529119e0b02407c7bb96a4a2c75c01fc9667232c8db858560405161101d9291906120c2565b60405180910390a45050505050565b60008061103a868686611684565b90506110458361178b565b801561106257506000848061105d5761105c6120eb565b5b868809115b15611077576001816110749190611f10565b90505b80915050949350505050565b600073ffffffffffffffffffffffffffffffffffffffff168473ffffffffffffffffffffffffffffffffffffffff16036110f55760006040517fe602df050000000000000000000000000000000000000000000000000000000081526004016110ec9190611cb8565b60405180910390fd5b600073ffffffffffffffffffffffffffffffffffffffff168373ffffffffffffffffffffffffffffffffffffffff16036111675760006040517f94280d6200000000000000000000000000000000000000000000000000000000815260040161115e9190611cb8565b60405180910390fd5b81600160008673ffffffffffffffffffffffffffffffffffffffff1673ffffffffffffffffffffffffffffffffffffffff16815260200190815260200160002060008573ffffffffffffffffffffffffffffffffffffffff1673ffffffffffffffffffffffffffffffffffffffff168152602001908152602001600020819055508015611254578273ffffffffffffffffffffffffffffffffffffffff168473ffffffffffffffffffffffffffffffffffffffff167f8c5be1e5ebec7d5bd14f71427d1e84f3dd0314c0f7b2291e5b200ac8c7c3b9258460405161124b9190611a20565b60405180910390a35b50505050565b600073ffffffffffffffffffffffffffffffffffffffff168373ffffffffffffffffffffffffffffffffffffffff16036112ac5780600260008282546112a09190611f10565b9250508190555061137f565b60008060008573ffffffffffffffffffffffffffffffffffffffff1673ffffffffffffffffffffffffffffffffffffffff16815260200190815260200160002054905081811015611338578381836040517fe450d38c00000000000000000000000000000000000000000000000000000000815260040161132f93929190611ed9565b60405180910390fd5b8181036000808673ffffffffffffffffffffffffffffffffffffffff1673ffffffffffffffffffffffffffffffffffffffff16815260200190815260200160002081905550505b600073ffffffffffffffffffffffffffffffffffffffff168273ffffffffffffffffffffffffffffffffffffffff16036113c85780600260008282540392505081905550611415565b806000808473ffffffffffffffffffffffffffffffffffffffff1673ffffffffffffffffffffffffffffffffffffffff168152602001908152602001600020600082825401925050819055505b8173ffffffffffffffffffffffffffffffffffffffff168373ffffffffffffffffffffffffffffffffffffffff167fddf252ad1be2c89b69c2b068fc378daa952ba7f163c4a11628f55a4df523b3ef836040516114729190611a20565b60405180910390a3505050565b6114fb848573ffffffffffffffffffffffffffffffffffffffff166323b872dd8686866040516024016114b49392919061211a565b604051602081830303815290604052915060e01b6020820180517bffffffffffffffffffffffffffffffffffffffffffffffffffffffff83818316178352505050506117b9565b50505050565b600073ffffffffffffffffffffffffffffffffffffffff168273ffffffffffffffffffffffffffffffffffffffff16036115735760006040517fec442f0500000000000000000000000000000000000000000000000000000000815260040161156a9190611cb8565b60405180910390fd5b61157f6000838361125a565b5050565b600073ffffffffffffffffffffffffffffffffffffffff168273ffffffffffffffffffffffffffffffffffffffff16036115f55760006040517f96c6fd1e0000000000000000000000000000000000000000000000000000000081526004016115ec9190611cb8565b60405180910390fd5b6116018260008361125a565b5050565b61167f838473ffffffffffffffffffffffffffffffffffffffff1663a9059cbb8585604051602401611638929190612151565b604051602081830303815290604052915060e01b6020820180517bffffffffffffffffffffffffffffffffffffffffffffffffffffffff83818316178352505050506117b9565b505050565b60008083850290506000801985870982811083820303915050600081036116bf578382816116b5576116b46120eb565b5b0492505050611784565b8084116116f8576040517f227bc15300000000000000000000000000000000000000000000000000000000815260040160405180910390fd5b600084868809905082811182039150808303925060008560000386169050808604955080840493506001818260000304019050808302841793506000600287600302189050808702600203810290508087026002038102905080870260020381029050808702600203810290508087026002038102905080870260020381029050808502955050505050505b9392505050565b6000600160028360038111156117a4576117a361217a565b5b6117ae91906121a9565b60ff16149050919050565b60006117e4828473ffffffffffffffffffffffffffffffffffffffff1661185090919063ffffffff16565b905060008151141580156118095750808060200190518101906118079190612206565b155b1561184b57826040517f5274afe70000000000000000000000000000000000000000000000000000000081526004016118429190611cb8565b60405180910390fd5b505050565b606061185e83836000611866565b905092915050565b6060814710156118ad57306040517fcd7860590000000000000000000000000000000000000000000000000000000081526004016118a49190611cb8565b60405180910390fd5b6000808573ffffffffffffffffffffffffffffffffffffffff1684866040516118d6919061227a565b60006040518083038185875af1925050503d8060008114611913576040519150601f19603f3d011682016040523d82523d6000602084013e611918565b606091505b5091509150611928868383611933565b925050509392505050565b60608261194857611943826119c2565b6119ba565b60008251148015611970575060008473ffffffffffffffffffffffffffffffffffffffff163b145b156119b257836040517f9996b3150000000000000000000000000000000000000000000000000000000081526004016119a99190611cb8565b60405180910390fd5b8190506119bb565b5b9392505050565b6000815111156119d55780518082602001fd5b6040517f1425ea4200000000000000000000000000000000000000000000000000000000815260040160405180910390fd5b6000819050919050565b611a1a81611a07565b82525050565b6000602082019050611a356000830184611a11565b92915050565b600081519050919050565b600082825260208201905092915050565b60005b83811015611a75578082015181840152602081019050611a5a565b60008484015250505050565b6000601f19601f8301169050919050565b6000611a9d82611a3b565b611aa78185611a46565b9350611ab7818560208601611a57565b611ac081611a81565b840191505092915050565b60006020820190508181036000830152611ae58184611a92565b905092915050565b600080fd5b611afb81611a07565b8114611b0657600080fd5b50565b600081359050611b1881611af2565b92915050565b600060208284031215611b3457611b33611aed565b5b6000611b4284828501611b09565b91505092915050565b600073ffffffffffffffffffffffffffffffffffffffff82169050919050565b6000611b7682611b4b565b9050919050565b611b8681611b6b565b8114611b9157600080fd5b50565b600081359050611ba381611b7d565b92915050565b60008060408385031215611bc057611bbf611aed565b5b6000611bce85828601611b94565b9250506020611bdf85828601611b09565b9150509250929050565b60008115159050919050565b611bfe81611be9565b82525050565b6000602082019050611c196000830184611bf5565b92915050565b600080600060608486031215611c3857611c37611aed565b5b6000611c4686828701611b94565b9350506020611c5786828701611b94565b9250506040611c6886828701611b09565b9150509250925092565b600060ff82169050919050565b611c8881611c72565b82525050565b6000602082019050611ca36000830184611c7f565b92915050565b611cb281611b6b565b82525050565b6000602082019050611ccd6000830184611ca9565b92915050565b600060208284031215611ce957611ce8611aed565b5b6000611cf784828501611b94565b91505092915050565b60008060408385031215611d1757611d16611aed565b5b6000611d2585828601611b09565b9250506020611d3685828601611b94565b9150509250929050565b600080600060608486031215611d5957611d58611aed565b5b6000611d6786828701611b09565b9350506020611d7886828701611b94565b9250506040611d8986828701611b94565b9150509250925092565b60008060408385031215611daa57611da9611aed565b5b6000611db885828601611b94565b9250506020611dc985828601611b94565b9150509250929050565b600081519050611de281611af2565b92915050565b600060208284031215611dfe57611dfd611aed565b5b6000611e0c84828501611dd3565b91505092915050565b7f4e487b7100000000000000000000000000000000000000000000000000000000600052602260045260246000fd5b60006002820490506001821680611e5c57607f821691505b602082108103611e6f57611e6e611e15565b5b50919050565b7f4e487b7100000000000000000000000000000000000000000000000000000000600052601160045260246000fd5b6000611eaf82611c72565b9150611eba83611c72565b9250828201905060ff811115611ed357611ed2611e75565b5b92915050565b6000606082019050611eee6000830186611ca9565b611efb6020830185611a11565b611f086040830184611a11565b949350505050565b6000611f1b82611a07565b9150611f2683611a07565b9250828201905080821115611f3e57611f3d611e75565b5b92915050565b60008160011c9050919050565b6000808291508390505b6001851115611f9b57808604811115611f7757611f76611e75565b5b6001851615611f865780820291505b8081029050611f9485611f44565b9450611f5b565b94509492505050565b600082611fb45760019050612070565b81611fc25760009050612070565b8160018114611fd85760028114611fe257612011565b6001915050612070565b60ff841115611ff457611ff3611e75565b5b8360020a91508482111561200b5761200a611e75565b5b50612070565b5060208310610133831016604e8410600b84101617156120465782820a90508381111561204157612040611e75565b5b612070565b6120538484846001611f51565b9250905081840481111561206a57612069611e75565b5b81810290505b9392505050565b600061208282611a07565b915061208d83611c72565b92506120ba7fffffffffffffffffffffffffffffffffffffffffffffffffffffffffffffffff8484611fa4565b905092915050565b60006040820190506120d76000830185611a11565b6120e46020830184611a11565b9392505050565b7f4e487b7100000000000000000000000000000000000000000000000000000000600052601260045260246000fd5b600060608201905061212f6000830186611ca9565b61213c6020830185611ca9565b6121496040830184611a11565b949350505050565b60006040820190506121666000830185611ca9565b6121736020830184611a11565b9392505050565b7f4e487b7100000000000000000000000000000000000000000000000000000000600052602160045260246000fd5b60006121b482611c72565b91506121bf83611c72565b9250826121cf576121ce6120eb565b5b828206905092915050565b6121e381611be9565b81146121ee57600080fd5b50565b600081519050612200816121da565b92915050565b60006020828403121561221c5761221b611aed565b5b600061222a848285016121f1565b91505092915050565b600081519050919050565b600081905092915050565b600061225482612233565b61225e818561223e565b935061226e818560208601611a57565b80840191505092915050565b60006122868284612249565b91508190509291505056fea264697066735822122085cd900f7869f82f1572871fcb2f0d397262cc4575571f3bf5826697e8135e8f64736f6c63430008180033",
  "linkReferences": {},
  "deployedLinkReferences": {}
}