{
  "_format": "hh-sol-artifact-1",
  "contractName": "Fabricator",
  "sourceName": "contracts/converters/Fabricator.sol",
  "abi": [
    {
      "inputs": [
        {
          "internalType": "string",
          "name": "name",
          "type": "string"
        },
        {
          "internalType": "string",
          "name": "symbol",
          "type": "string"
        }
      ],
      "stateMutability": "nonpayable",
      "type": "constructor"
    },
    {
      "inputs": [
        {
          "internalType": "address",
          "name": "sender",
          "type": "address"
        },
        {
          "internalType": "uint256",
          "name": "tokenId",
          "type": "uint256"
        },
        {
          "internalType": "address",
          "name": "owner",
          "type": "address"
        }
      ],
      "name": "ERC721IncorrectOwner",
      "type": "error"
    },
    {
      "inputs": [
        {
          "internalType": "address",
          "name": "operator",
          "type": "address"
        },
        {
          "internalType": "uint256",
          "name": "tokenId",
          "type": "uint256"
        }
      ],
      "name": "ERC721InsufficientApproval",
      "type": "error"
    },
    {
      "inputs": [
        {
          "internalType": "address",
          "name": "approver",
          "type": "address"
        }
      ],
      "name": "ERC721InvalidApprover",
      "type": "error"
    },
    {
      "inputs": [
        {
          "internalType": "address",
          "name": "operator",
          "type": "address"
        }
      ],
      "name": "ERC721InvalidOperator",
      "type": "error"
    },
    {
      "inputs": [
        {
          "internalType": "address",
          "name": "owner",
          "type": "address"
        }
      ],
      "name": "ERC721InvalidOwner",
      "type": "error"
    },
    {
      "inputs": [
        {
          "internalType": "address",
          "name": "receiver",
          "type": "address"
        }
      ],
      "name": "ERC721InvalidReceiver",
      "type": "error"
    },
    {
      "inputs": [
        {
          "internalType": "address",
          "name": "sender",
          "type": "address"
        }
      ],
      "name": "ERC721InvalidSender",
      "type": "error"
    },
    {
      "inputs": [
        {
          "internalType": "uint256",
          "name": "tokenId",
          "type": "uint256"
        }
      ],
      "name": "ERC721NonexistentToken",
      "type": "error"
    },
    {
      "inputs": [
        {
          "internalType": "address",
          "name": "owner",
          "type": "address"
        }
      ],
      "name": "OwnableInvalidOwner",
      "type": "error"
    },
    {
      "inputs": [
        {
          "internalType": "address",
          "name": "account",
          "type": "address"
        }
      ],
      "name": "OwnableUnauthorizedAccount",
      "type": "error"
    },
    {
      "anonymous": false,
      "inputs": [
        {
          "indexed": true,
          "internalType": "address",
          "name": "owner",
          "type": "address"
        },
        {
          "indexed": true,
          "internalType": "address",
          "name": "approved",
          "type": "address"
        },
        {
          "indexed": true,
          "internalType": "uint256",
          "name": "tokenId",
          "type": "uint256"
        }
      ],
      "name": "Approval",
      "type": "event"
    },
    {
      "anonymous": false,
      "inputs": [
        {
          "indexed": true,
          "internalType": "address",
          "name": "owner",
          "type": "address"
        },
        {
          "indexed": true,
          "internalType": "address",
          "name": "operator",
          "type": "address"
        },
        {
          "indexed": false,
          "internalType": "bool",
          "name": "approved",
          "type": "bool"
        }
      ],
      "name": "ApprovalForAll",
      "type": "event"
    },
    {
      "anonymous": false,
      "inputs": [
        {
          "indexed": true,
          "internalType": "address",
          "name": "previousOwner",
          "type": "address"
        },
        {
          "indexed": true,
          "internalType": "address",
          "name": "newOwner",
          "type": "address"
        }
      ],
      "name": "OwnershipTransferred",
      "type": "event"
    },
    {
      "anonymous": false,
      "inputs": [
        {
          "indexed": true,
          "internalType": "address",
          "name": "from",
          "type": "address"
        },
        {
          "indexed": true,
          "internalType": "address",
          "name": "to",
          "type": "address"
        },
        {
          "indexed": true,
          "internalType": "uint256",
          "name": "tokenId",
          "type": "uint256"
        }
      ],
      "name": "Transfer",
      "type": "event"
    },
    {
      "inputs": [
        {
          "internalType": "uint256",
          "name": "id",
          "type": "uint256"
        },
        {
          "internalType": "string",
          "name": "uri",
          "type": "string"
        },
        {
          "internalType": "contract ERC1155",
          "name": "tokenContract",
          "type": "address"
        },
        {
          "internalType": "uint256[]",
          "name": "tokenIDs",
          "type": "uint256[]"
        },
        {
          "internalType": "uint256[]",
          "name": "amountsRequired",
          "type": "uint256[]"
        },
        {
          "internalType": "uint256",
          "name": "fee",
          "type": "uint256"
        }
      ],
      "name": "addBuild",
      "outputs": [],
      "stateMutability": "nonpayable",
      "type": "function"
    },
    {
      "inputs": [
        {
          "internalType": "address",
          "name": "to",
          "type": "address"
        },
        {
          "internalType": "uint256",
          "name": "tokenId",
          "type": "uint256"
        }
      ],
      "name": "approve",
      "outputs": [],
      "stateMutability": "nonpayable",
      "type": "function"
    },
    {
      "inputs": [
        {
          "internalType": "address",
          "name": "owner",
          "type": "address"
        }
      ],
      "name": "balanceOf",
      "outputs": [
        {
          "internalType": "uint256",
          "name": "",
          "type": "uint256"
        }
      ],
      "stateMutability": "view",
      "type": "function"
    },
    {
      "inputs": [],
      "name": "collectFees",
      "outputs": [],
      "stateMutability": "nonpayable",
      "type": "function"
    },
    {
      "inputs": [
        {
          "internalType": "uint256",
          "name": "id",
          "type": "uint256"
        },
        {
          "internalType": "uint256",
          "name": "amount",
          "type": "uint256"
        }
      ],
      "name": "fabricate",
      "outputs": [],
      "stateMutability": "payable",
      "type": "function"
    },
    {
      "inputs": [
        {
          "internalType": "uint256",
          "name": "tokenId",
          "type": "uint256"
        }
      ],
      "name": "getApproved",
      "outputs": [
        {
          "internalType": "address",
          "name": "",
          "type": "address"
        }
      ],
      "stateMutability": "view",
      "type": "function"
    },
    {
      "inputs": [
        {
          "internalType": "uint256",
          "name": "id",
          "type": "uint256"
        }
      ],
      "name": "getBuild",
      "outputs": [
        {
          "components": [
            {
              "internalType": "string",
              "name": "uri",
              "type": "string"
            },
            {
              "internalType": "contract ERC1155",
              "name": "tokenContract",
              "type": "address"
            },
            {
              "internalType": "uint256[]",
              "name": "tokenIDs",
              "type": "uint256[]"
            },
            {
              "internalType": "uint256[]",
              "name": "amountsRequired",
              "type": "uint256[]"
            },
            {
              "internalType": "uint256",
              "name": "fee",
              "type": "uint256"
            }
          ],
          "internalType": "struct IFabricator.Build",
          "name": "",
          "type": "tuple"
        }
      ],
      "stateMutability": "view",
      "type": "function"
    },
    {
      "inputs": [
        {
          "internalType": "address",
          "name": "owner",
          "type": "address"
        },
        {
          "internalType": "address",
          "name": "operator",
          "type": "address"
        }
      ],
      "name": "isApprovedForAll",
      "outputs": [
        {
          "internalType": "bool",
          "name": "",
          "type": "bool"
        }
      ],
      "stateMutability": "view",
      "type": "function"
    },
    {
      "inputs": [],
      "name": "name",
      "outputs": [
        {
          "internalType": "string",
          "name": "",
          "type": "string"
        }
      ],
      "stateMutability": "view",
      "type": "function"
    },
    {
      "inputs": [],
      "name": "owner",
      "outputs": [
        {
          "internalType": "address",
          "name": "",
          "type": "address"
        }
      ],
      "stateMutability": "view",
      "type": "function"
    },
    {
      "inputs": [
        {
          "internalType": "uint256",
          "name": "tokenId",
          "type": "uint256"
        }
      ],
      "name": "ownerOf",
      "outputs": [
        {
          "internalType": "address",
          "name": "",
          "type": "address"
        }
      ],
      "stateMutability": "view",
      "type": "function"
    },
    {
      "inputs": [],
      "name": "renounceOwnership",
      "outputs": [],
      "stateMutability": "nonpayable",
      "type": "function"
    },
    {
      "inputs": [
        {
          "internalType": "address",
          "name": "from",
          "type": "address"
        },
        {
          "internalType": "address",
          "name": "to",
          "type": "address"
        },
        {
          "internalType": "uint256",
          "name": "tokenId",
          "type": "uint256"
        }
      ],
      "name": "safeTransferFrom",
      "outputs": [],
      "stateMutability": "nonpayable",
      "type": "function"
    },
    {
      "inputs": [
        {
          "internalType": "address",
          "name": "from",
          "type": "address"
        },
        {
          "internalType": "address",
          "name": "to",
          "type": "address"
        },
        {
          "internalType": "uint256",
          "name": "tokenId",
          "type": "uint256"
        },
        {
          "internalType": "bytes",
          "name": "data",
          "type": "bytes"
        }
      ],
      "name": "safeTransferFrom",
      "outputs": [],
      "stateMutability": "nonpayable",
      "type": "function"
    },
    {
      "inputs": [
        {
          "internalType": "address",
          "name": "operator",
          "type": "address"
        },
        {
          "internalType": "bool",
          "name": "approved",
          "type": "bool"
        }
      ],
      "name": "setApprovalForAll",
      "outputs": [],
      "stateMutability": "nonpayable",
      "type": "function"
    },
    {
      "inputs": [
        {
          "internalType": "bytes4",
          "name": "interfaceId",
          "type": "bytes4"
        }
      ],
      "name": "supportsInterface",
      "outputs": [
        {
          "internalType": "bool",
          "name": "",
          "type": "bool"
        }
      ],
      "stateMutability": "view",
      "type": "function"
    },
    {
      "inputs": [],
      "name": "symbol",
      "outputs": [
        {
          "internalType": "string",
          "name": "",
          "type": "string"
        }
      ],
      "stateMutability": "view",
      "type": "function"
    },
    {
      "inputs": [
        {
          "internalType": "uint256",
          "name": "tokenId",
          "type": "uint256"
        }
      ],
      "name": "tokenURI",
      "outputs": [
        {
          "internalType": "string",
          "name": "",
          "type": "string"
        }
      ],
      "stateMutability": "view",
      "type": "function"
    },
    {
      "inputs": [
        {
          "internalType": "address",
          "name": "from",
          "type": "address"
        },
        {
          "internalType": "address",
          "name": "to",
          "type": "address"
        },
        {
          "internalType": "uint256",
          "name": "tokenId",
          "type": "uint256"
        }
      ],
      "name": "transferFrom",
      "outputs": [],
      "stateMutability": "nonpayable",
      "type": "function"
    },
    {
      "inputs": [
        {
          "internalType": "address",
          "name": "newOwner",
          "type": "address"
        }
      ],
      "name": "transferOwnership",
      "outputs": [],
      "stateMutability": "nonpayable",
      "type": "function"
    }
  ],
  "bytecode": "0x60806040523480156200001157600080fd5b5060405162003b9f38038062003b9f833981810160405281019062000037919062000346565b818133600073ffffffffffffffffffffffffffffffffffffffff168173ffffffffffffffffffffffffffffffffffffffff1603620000af5760006040517f1e4fbdf7000000000000000000000000000000000000000000000000000000008152600401620000a6919062000410565b60405180910390fd5b620000c081620000ef60201b60201c565b508160019081620000d2919062000678565b508060029081620000e4919062000678565b50505050506200075f565b60008060009054906101000a900473ffffffffffffffffffffffffffffffffffffffff169050816000806101000a81548173ffffffffffffffffffffffffffffffffffffffff021916908373ffffffffffffffffffffffffffffffffffffffff1602179055508173ffffffffffffffffffffffffffffffffffffffff168173ffffffffffffffffffffffffffffffffffffffff167f8be0079c531659141344cd1fd0a4f28419497f9722a3daafe3b4186f6b6457e060405160405180910390a35050565b6000604051905090565b600080fd5b600080fd5b600080fd5b600080fd5b6000601f19601f8301169050919050565b7f4e487b7100000000000000000000000000000000000000000000000000000000600052604160045260246000fd5b6200021c82620001d1565b810181811067ffffffffffffffff821117156200023e576200023d620001e2565b5b80604052505050565b600062000253620001b3565b905062000261828262000211565b919050565b600067ffffffffffffffff821115620002845762000283620001e2565b5b6200028f82620001d1565b9050602081019050919050565b60005b83811015620002bc5780820151818401526020810190506200029f565b60008484015250505050565b6000620002df620002d98462000266565b62000247565b905082815260208101848484011115620002fe57620002fd620001cc565b5b6200030b8482856200029c565b509392505050565b600082601f8301126200032b576200032a620001c7565b5b81516200033d848260208601620002c8565b91505092915050565b6000806040838503121562000360576200035f620001bd565b5b600083015167ffffffffffffffff811115620003815762000380620001c2565b5b6200038f8582860162000313565b925050602083015167ffffffffffffffff811115620003b357620003b2620001c2565b5b620003c18582860162000313565b9150509250929050565b600073ffffffffffffffffffffffffffffffffffffffff82169050919050565b6000620003f882620003cb565b9050919050565b6200040a81620003eb565b82525050565b6000602082019050620004276000830184620003ff565b92915050565b600081519050919050565b7f4e487b7100000000000000000000000000000000000000000000000000000000600052602260045260246000fd5b600060028204905060018216806200048057607f821691505b60208210810362000496576200049562000438565b5b50919050565b60008190508160005260206000209050919050565b60006020601f8301049050919050565b600082821b905092915050565b600060088302620005007fffffffffffffffffffffffffffffffffffffffffffffffffffffffffffffffff82620004c1565b6200050c8683620004c1565b95508019841693508086168417925050509392505050565b6000819050919050565b6000819050919050565b600062000559620005536200054d8462000524565b6200052e565b62000524565b9050919050565b6000819050919050565b620005758362000538565b6200058d620005848262000560565b848454620004ce565b825550505050565b600090565b620005a462000595565b620005b18184846200056a565b505050565b5b81811015620005d957620005cd6000826200059a565b600181019050620005b7565b5050565b601f8211156200062857620005f2816200049c565b620005fd84620004b1565b810160208510156200060d578190505b620006256200061c85620004b1565b830182620005b6565b50505b505050565b600082821c905092915050565b60006200064d600019846008026200062d565b1980831691505092915050565b60006200066883836200063a565b9150826002028217905092915050565b62000683826200042d565b67ffffffffffffffff8111156200069f576200069e620001e2565b5b620006ab825462000467565b620006b8828285620005dd565b600060209050601f831160018114620006f05760008415620006db578287015190505b620006e785826200065a565b86555062000757565b601f19841662000700866200049c565b60005b828110156200072a5784890151825560018201915060208501945060208101905062000703565b868310156200074a578489015162000746601f8916826200063a565b8355505b6001600288020188555050505b505050505050565b613430806200076f6000396000f3fe60806040526004361061011f5760003560e01c8063715018a6116100a0578063c392dc9011610064578063c392dc90146103c2578063c8796572146103ff578063c87b56dd14610416578063e985e9c514610453578063f2fde38b146104905761011f565b8063715018a6146103035780638da5cb5b1461031a57806395d89b4114610345578063a22cb46514610370578063b88d4fde146103995761011f565b806336a68e8f116100e757806336a68e8f1461021b57806342842e0e146102375780636352211e1461026057806363e9707b1461029d57806370a08231146102c65761011f565b806301ffc9a71461012457806306fdde0314610161578063081812fc1461018c578063095ea7b3146101c957806323b872dd146101f2575b600080fd5b34801561013057600080fd5b5061014b6004803603810190610146919061216a565b6104b9565b60405161015891906121b2565b60405180910390f35b34801561016d57600080fd5b5061017661059b565b604051610183919061225d565b60405180910390f35b34801561019857600080fd5b506101b360048036038101906101ae91906122b5565b61062d565b6040516101c09190612323565b60405180910390f35b3480156101d557600080fd5b506101f060048036038101906101eb919061236a565b610649565b005b3480156101fe57600080fd5b50610219600480360381019061021491906123aa565b61065f565b005b610235600480360381019061023091906123fd565b610761565b005b34801561024357600080fd5b5061025e600480360381019061025991906123aa565b610931565b005b34801561026c57600080fd5b50610287600480360381019061028291906122b5565b610951565b6040516102949190612323565b60405180910390f35b3480156102a957600080fd5b506102c460048036038101906102bf9190612536565b610963565b005b3480156102d257600080fd5b506102ed60048036038101906102e89190612625565b610c5d565b6040516102fa9190612661565b60405180910390f35b34801561030f57600080fd5b50610318610d17565b005b34801561032657600080fd5b5061032f610d2b565b60405161033c9190612323565b60405180910390f35b34801561035157600080fd5b5061035a610d54565b604051610367919061225d565b60405180910390f35b34801561037c57600080fd5b50610397600480360381019061039291906126a8565b610de6565b005b3480156103a557600080fd5b506103c060048036038101906103bb9190612818565b610dfc565b005b3480156103ce57600080fd5b506103e960048036038101906103e491906122b5565b610e19565b6040516103f69190612a86565b60405180910390f35b34801561040b57600080fd5b50610414610fe8565b005b34801561042257600080fd5b5061043d600480360381019061043891906122b5565b611040565b60405161044a919061225d565b60405180910390f35b34801561045f57600080fd5b5061047a60048036038101906104759190612aa8565b6110a9565b60405161048791906121b2565b60405180910390f35b34801561049c57600080fd5b506104b760048036038101906104b29190612625565b61113d565b005b60007f80ac58cd000000000000000000000000000000000000000000000000000000007bffffffffffffffffffffffffffffffffffffffffffffffffffffffff1916827bffffffffffffffffffffffffffffffffffffffffffffffffffffffff1916148061058457507f5b5e139f000000000000000000000000000000000000000000000000000000007bffffffffffffffffffffffffffffffffffffffffffffffffffffffff1916827bffffffffffffffffffffffffffffffffffffffffffffffffffffffff1916145b806105945750610593826111c3565b5b9050919050565b6060600180546105aa90612b17565b80601f01602080910402602001604051908101604052809291908181526020018280546105d690612b17565b80156106235780601f106105f857610100808354040283529160200191610623565b820191906000526020600020905b81548152906001019060200180831161060657829003601f168201915b5050505050905090565b60006106388261122d565b50610642826112b5565b9050919050565b61065b82826106566112f2565b6112fa565b5050565b600073ffffffffffffffffffffffffffffffffffffffff168273ffffffffffffffffffffffffffffffffffffffff16036106d15760006040517f64a0ae920000000000000000000000000000000000000000000000000000000081526004016106c89190612323565b60405180910390fd5b60006106e583836106e06112f2565b61130c565b90508373ffffffffffffffffffffffffffffffffffffffff168173ffffffffffffffffffffffffffffffffffffffff161461075b578382826040517f64283d7b00000000000000000000000000000000000000000000000000000000815260040161075293929190612b48565b60405180910390fd5b50505050565b60006007600084815260200190815260200160002060020180549050036107bd576040517f08c379a00000000000000000000000000000000000000000000000000000000081526004016107b490612bcb565b60405180910390fd5b8060076000848152602001908152602001600020600401546107df9190612c1a565b3414610820576040517f08c379a000000000000000000000000000000000000000000000000000000000815260040161081790612ca8565b60405180910390fd5b60005b6007600084815260200190815260200160002060020180549050811015610922576007600084815260200190815260200160002060010160009054906101000a900473ffffffffffffffffffffffffffffffffffffffff1673ffffffffffffffffffffffffffffffffffffffff16632eb2c2d6333060076000888152602001908152602001600020600201600760008981526020019081526020016000206003016040518563ffffffff1660e01b81526004016108e39493929190612de6565b600060405180830381600087803b1580156108fd57600080fd5b505af1158015610911573d6000803e3d6000fd5b505050508080600101915050610823565b5061092d3383611526565b5050565b61094c83838360405180602001604052806000815250610dfc565b505050565b600061095c8261122d565b9050919050565b61096b61161f565b600089036109ae576040517f08c379a00000000000000000000000000000000000000000000000000000000081526004016109a590612e98565b60405180910390fd5b600085859050036109f4576040517f08c379a00000000000000000000000000000000000000000000000000000000081526004016109eb90612f04565b60405180910390fd5b828290508585905014610a3c576040517f08c379a0000000000000000000000000000000000000000000000000000000008152600401610a3390612f70565b60405180910390fd5b6000600760008b81526020019081526020016000206002018054905014610a98576040517f08c379a0000000000000000000000000000000000000000000000000000000008152600401610a8f90612fdc565b60405180910390fd5b6040518060a0016040528089898080601f016020809104026020016040519081016040528093929190818152602001838380828437600081840152601f19601f8201169050808301925050505050505081526020018773ffffffffffffffffffffffffffffffffffffffff168152602001868680806020026020016040519081016040528093929190818152602001838360200280828437600081840152601f19601f820116905080830192505050505050508152602001848480806020026020016040519081016040528093929190818152602001838360200280828437600081840152601f19601f82011690508083019250505050505050815260200182815250600760008b81526020019081526020016000206000820151816000019081610bc3919061319e565b5060208201518160010160006101000a81548173ffffffffffffffffffffffffffffffffffffffff021916908373ffffffffffffffffffffffffffffffffffffffff1602179055506040820151816002019080519060200190610c2792919061204f565b506060820151816003019080519060200190610c4492919061204f565b5060808201518160040155905050505050505050505050565b60008073ffffffffffffffffffffffffffffffffffffffff168273ffffffffffffffffffffffffffffffffffffffff1603610cd05760006040517f89c62b64000000000000000000000000000000000000000000000000000000008152600401610cc79190612323565b60405180910390fd5b600460008373ffffffffffffffffffffffffffffffffffffffff1673ffffffffffffffffffffffffffffffffffffffff168152602001908152602001600020549050919050565b610d1f61161f565b610d2960006116a6565b565b60008060009054906101000a900473ffffffffffffffffffffffffffffffffffffffff16905090565b606060028054610d6390612b17565b80601f0160208091040260200160405190810160405280929190818152602001828054610d8f90612b17565b8015610ddc5780601f10610db157610100808354040283529160200191610ddc565b820191906000526020600020905b815481529060010190602001808311610dbf57829003601f168201915b5050505050905090565b610df8610df16112f2565b838361176a565b5050565b610e0784848461065f565b610e13848484846118d9565b50505050565b610e2161209c565b600760008381526020019081526020016000206040518060a0016040529081600082018054610e4f90612b17565b80601f0160208091040260200160405190810160405280929190818152602001828054610e7b90612b17565b8015610ec85780601f10610e9d57610100808354040283529160200191610ec8565b820191906000526020600020905b815481529060010190602001808311610eab57829003601f168201915b505050505081526020016001820160009054906101000a900473ffffffffffffffffffffffffffffffffffffffff1673ffffffffffffffffffffffffffffffffffffffff1673ffffffffffffffffffffffffffffffffffffffff16815260200160028201805480602002602001604051908101604052809291908181526020018280548015610f7657602002820191906000526020600020905b815481526020019060010190808311610f62575b5050505050815260200160038201805480602002602001604051908101604052809291908181526020018280548015610fce57602002820191906000526020600020905b815481526020019060010190808311610fba575b505050505081526020016004820154815250509050919050565b610ff061161f565b610ff8610d2b565b73ffffffffffffffffffffffffffffffffffffffff166108fc479081150290604051600060405180830381858888f1935050505015801561103d573d6000803e3d6000fd5b50565b606061104b8261122d565b506000611056611a90565b9050600081511161107657604051806020016040528060008152506110a1565b8061108084611aa7565b6040516020016110919291906132ac565b6040516020818303038152906040525b915050919050565b6000600660008473ffffffffffffffffffffffffffffffffffffffff1673ffffffffffffffffffffffffffffffffffffffff16815260200190815260200160002060008373ffffffffffffffffffffffffffffffffffffffff1673ffffffffffffffffffffffffffffffffffffffff16815260200190815260200160002060009054906101000a900460ff16905092915050565b61114561161f565b600073ffffffffffffffffffffffffffffffffffffffff168173ffffffffffffffffffffffffffffffffffffffff16036111b75760006040517f1e4fbdf70000000000000000000000000000000000000000000000000000000081526004016111ae9190612323565b60405180910390fd5b6111c0816116a6565b50565b60007f01ffc9a7000000000000000000000000000000000000000000000000000000007bffffffffffffffffffffffffffffffffffffffffffffffffffffffff1916827bffffffffffffffffffffffffffffffffffffffffffffffffffffffff1916149050919050565b60008061123983611b75565b9050600073ffffffffffffffffffffffffffffffffffffffff168173ffffffffffffffffffffffffffffffffffffffff16036112ac57826040517f7e2732890000000000000000000000000000000000000000000000000000000081526004016112a39190612661565b60405180910390fd5b80915050919050565b60006005600083815260200190815260200160002060009054906101000a900473ffffffffffffffffffffffffffffffffffffffff169050919050565b600033905090565b6113078383836001611bb2565b505050565b60008061131884611b75565b9050600073ffffffffffffffffffffffffffffffffffffffff168373ffffffffffffffffffffffffffffffffffffffff161461135a57611359818486611d77565b5b600073ffffffffffffffffffffffffffffffffffffffff168173ffffffffffffffffffffffffffffffffffffffff16146113eb5761139c600085600080611bb2565b6001600460008373ffffffffffffffffffffffffffffffffffffffff1673ffffffffffffffffffffffffffffffffffffffff168152602001908152602001600020600082825403925050819055505b600073ffffffffffffffffffffffffffffffffffffffff168573ffffffffffffffffffffffffffffffffffffffff161461146e576001600460008773ffffffffffffffffffffffffffffffffffffffff1673ffffffffffffffffffffffffffffffffffffffff168152602001908152602001600020600082825401925050819055505b846003600086815260200190815260200160002060006101000a81548173ffffffffffffffffffffffffffffffffffffffff021916908373ffffffffffffffffffffffffffffffffffffffff160217905550838573ffffffffffffffffffffffffffffffffffffffff168273ffffffffffffffffffffffffffffffffffffffff167fddf252ad1be2c89b69c2b068fc378daa952ba7f163c4a11628f55a4df523b3ef60405160405180910390a4809150509392505050565b600073ffffffffffffffffffffffffffffffffffffffff168273ffffffffffffffffffffffffffffffffffffffff16036115985760006040517f64a0ae9200000000000000000000000000000000000000000000000000000000815260040161158f9190612323565b60405180910390fd5b60006115a68383600061130c565b9050600073ffffffffffffffffffffffffffffffffffffffff168173ffffffffffffffffffffffffffffffffffffffff161461161a5760006040517f73c6ac6e0000000000000000000000000000000000000000000000000000000081526004016116119190612323565b60405180910390fd5b505050565b6116276112f2565b73ffffffffffffffffffffffffffffffffffffffff16611645610d2b565b73ffffffffffffffffffffffffffffffffffffffff16146116a4576116686112f2565b6040517f118cdaa700000000000000000000000000000000000000000000000000000000815260040161169b9190612323565b60405180910390fd5b565b60008060009054906101000a900473ffffffffffffffffffffffffffffffffffffffff169050816000806101000a81548173ffffffffffffffffffffffffffffffffffffffff021916908373ffffffffffffffffffffffffffffffffffffffff1602179055508173ffffffffffffffffffffffffffffffffffffffff168173ffffffffffffffffffffffffffffffffffffffff167f8be0079c531659141344cd1fd0a4f28419497f9722a3daafe3b4186f6b6457e060405160405180910390a35050565b600073ffffffffffffffffffffffffffffffffffffffff168273ffffffffffffffffffffffffffffffffffffffff16036117db57816040517f5b08ba180000000000000000000000000000000000000000000000000000000081526004016117d29190612323565b60405180910390fd5b80600660008573ffffffffffffffffffffffffffffffffffffffff1673ffffffffffffffffffffffffffffffffffffffff16815260200190815260200160002060008473ffffffffffffffffffffffffffffffffffffffff1673ffffffffffffffffffffffffffffffffffffffff16815260200190815260200160002060006101000a81548160ff0219169083151502179055508173ffffffffffffffffffffffffffffffffffffffff168373ffffffffffffffffffffffffffffffffffffffff167f17307eab39ab6107e8899845ad3d59bd9653f200f220920489ca2b5937696c31836040516118cc91906121b2565b60405180910390a3505050565b60008373ffffffffffffffffffffffffffffffffffffffff163b1115611a8a578273ffffffffffffffffffffffffffffffffffffffff1663150b7a0261191d6112f2565b8685856040518563ffffffff1660e01b815260040161193f9493929190613314565b6020604051808303816000875af192505050801561197b57506040513d601f19601f820116820180604052508101906119789190613375565b60015b6119ff573d80600081146119ab576040519150601f19603f3d011682016040523d82523d6000602084013e6119b0565b606091505b5060008151036119f757836040517f64a0ae920000000000000000000000000000000000000000000000000000000081526004016119ee9190612323565b60405180910390fd5b805181602001fd5b63150b7a0260e01b7bffffffffffffffffffffffffffffffffffffffffffffffffffffffff1916817bffffffffffffffffffffffffffffffffffffffffffffffffffffffff191614611a8857836040517f64a0ae92000000000000000000000000000000000000000000000000000000008152600401611a7f9190612323565b60405180910390fd5b505b50505050565b606060405180602001604052806000815250905090565b606060006001611ab684611e3b565b01905060008167ffffffffffffffff811115611ad557611ad46126ed565b5b6040519080825280601f01601f191660200182016040528015611b075781602001600182028036833780820191505090505b509050600082602001820190505b600115611b6a578080600190039150507f3031323334353637383961626364656600000000000000000000000000000000600a86061a8153600a8581611b5e57611b5d6133a2565b5b04945060008503611b15575b819350505050919050565b60006003600083815260200190815260200160002060009054906101000a900473ffffffffffffffffffffffffffffffffffffffff169050919050565b8080611beb5750600073ffffffffffffffffffffffffffffffffffffffff168273ffffffffffffffffffffffffffffffffffffffff1614155b15611d1f576000611bfb8461122d565b9050600073ffffffffffffffffffffffffffffffffffffffff168373ffffffffffffffffffffffffffffffffffffffff1614158015611c6657508273ffffffffffffffffffffffffffffffffffffffff168173ffffffffffffffffffffffffffffffffffffffff1614155b8015611c795750611c7781846110a9565b155b15611cbb57826040517fa9fbf51f000000000000000000000000000000000000000000000000000000008152600401611cb29190612323565b60405180910390fd5b8115611d1d57838573ffffffffffffffffffffffffffffffffffffffff168273ffffffffffffffffffffffffffffffffffffffff167f8c5be1e5ebec7d5bd14f71427d1e84f3dd0314c0f7b2291e5b200ac8c7c3b92560405160405180910390a45b505b836005600085815260200190815260200160002060006101000a81548173ffffffffffffffffffffffffffffffffffffffff021916908373ffffffffffffffffffffffffffffffffffffffff16021790555050505050565b611d82838383611f8e565b611e3657600073ffffffffffffffffffffffffffffffffffffffff168373ffffffffffffffffffffffffffffffffffffffff1603611df757806040517f7e273289000000000000000000000000000000000000000000000000000000008152600401611dee9190612661565b60405180910390fd5b81816040517f177e802f000000000000000000000000000000000000000000000000000000008152600401611e2d9291906133d1565b60405180910390fd5b505050565b600080600090507a184f03e93ff9f4daa797ed6e38ed64bf6a1f0100000000000000008310611e99577a184f03e93ff9f4daa797ed6e38ed64bf6a1f0100000000000000008381611e8f57611e8e6133a2565b5b0492506040810190505b6d04ee2d6d415b85acef81000000008310611ed6576d04ee2d6d415b85acef81000000008381611ecc57611ecb6133a2565b5b0492506020810190505b662386f26fc100008310611f0557662386f26fc100008381611efb57611efa6133a2565b5b0492506010810190505b6305f5e1008310611f2e576305f5e1008381611f2457611f236133a2565b5b0492506008810190505b6127108310611f53576127108381611f4957611f486133a2565b5b0492506004810190505b60648310611f765760648381611f6c57611f6b6133a2565b5b0492506002810190505b600a8310611f85576001810190505b80915050919050565b60008073ffffffffffffffffffffffffffffffffffffffff168373ffffffffffffffffffffffffffffffffffffffff161415801561204657508273ffffffffffffffffffffffffffffffffffffffff168473ffffffffffffffffffffffffffffffffffffffff161480612007575061200684846110a9565b5b8061204557508273ffffffffffffffffffffffffffffffffffffffff1661202d836112b5565b73ffffffffffffffffffffffffffffffffffffffff16145b5b90509392505050565b82805482825590600052602060002090810192821561208b579160200282015b8281111561208a57825182559160200191906001019061206f565b5b50905061209891906120e1565b5090565b6040518060a0016040528060608152602001600073ffffffffffffffffffffffffffffffffffffffff1681526020016060815260200160608152602001600081525090565b5b808211156120fa5760008160009055506001016120e2565b5090565b6000604051905090565b600080fd5b600080fd5b60007fffffffff0000000000000000000000000000000000000000000000000000000082169050919050565b61214781612112565b811461215257600080fd5b50565b6000813590506121648161213e565b92915050565b6000602082840312156121805761217f612108565b5b600061218e84828501612155565b91505092915050565b60008115159050919050565b6121ac81612197565b82525050565b60006020820190506121c760008301846121a3565b92915050565b600081519050919050565b600082825260208201905092915050565b60005b838110156122075780820151818401526020810190506121ec565b60008484015250505050565b6000601f19601f8301169050919050565b600061222f826121cd565b61223981856121d8565b93506122498185602086016121e9565b61225281612213565b840191505092915050565b600060208201905081810360008301526122778184612224565b905092915050565b6000819050919050565b6122928161227f565b811461229d57600080fd5b50565b6000813590506122af81612289565b92915050565b6000602082840312156122cb576122ca612108565b5b60006122d9848285016122a0565b91505092915050565b600073ffffffffffffffffffffffffffffffffffffffff82169050919050565b600061230d826122e2565b9050919050565b61231d81612302565b82525050565b60006020820190506123386000830184612314565b92915050565b61234781612302565b811461235257600080fd5b50565b6000813590506123648161233e565b92915050565b6000806040838503121561238157612380612108565b5b600061238f85828601612355565b92505060206123a0858286016122a0565b9150509250929050565b6000806000606084860312156123c3576123c2612108565b5b60006123d186828701612355565b93505060206123e286828701612355565b92505060406123f3868287016122a0565b9150509250925092565b6000806040838503121561241457612413612108565b5b6000612422858286016122a0565b9250506020612433858286016122a0565b9150509250929050565b600080fd5b600080fd5b600080fd5b60008083601f8401126124625761246161243d565b5b8235905067ffffffffffffffff81111561247f5761247e612442565b5b60208301915083600182028301111561249b5761249a612447565b5b9250929050565b60006124ad82612302565b9050919050565b6124bd816124a2565b81146124c857600080fd5b50565b6000813590506124da816124b4565b92915050565b60008083601f8401126124f6576124f561243d565b5b8235905067ffffffffffffffff81111561251357612512612442565b5b60208301915083602082028301111561252f5761252e612447565b5b9250929050565b600080600080600080600080600060c08a8c03121561255857612557612108565b5b60006125668c828d016122a0565b99505060208a013567ffffffffffffffff8111156125875761258661210d565b5b6125938c828d0161244c565b985098505060406125a68c828d016124cb565b96505060608a013567ffffffffffffffff8111156125c7576125c661210d565b5b6125d38c828d016124e0565b955095505060808a013567ffffffffffffffff8111156125f6576125f561210d565b5b6126028c828d016124e0565b935093505060a06126158c828d016122a0565b9150509295985092959850929598565b60006020828403121561263b5761263a612108565b5b600061264984828501612355565b91505092915050565b61265b8161227f565b82525050565b60006020820190506126766000830184612652565b92915050565b61268581612197565b811461269057600080fd5b50565b6000813590506126a28161267c565b92915050565b600080604083850312156126bf576126be612108565b5b60006126cd85828601612355565b92505060206126de85828601612693565b9150509250929050565b600080fd5b7f4e487b7100000000000000000000000000000000000000000000000000000000600052604160045260246000fd5b61272582612213565b810181811067ffffffffffffffff82111715612744576127436126ed565b5b80604052505050565b60006127576120fe565b9050612763828261271c565b919050565b600067ffffffffffffffff821115612783576127826126ed565b5b61278c82612213565b9050602081019050919050565b82818337600083830152505050565b60006127bb6127b684612768565b61274d565b9050828152602081018484840111156127d7576127d66126e8565b5b6127e2848285612799565b509392505050565b600082601f8301126127ff576127fe61243d565b5b813561280f8482602086016127a8565b91505092915050565b6000806000806080858703121561283257612831612108565b5b600061284087828801612355565b945050602061285187828801612355565b9350506040612862878288016122a0565b925050606085013567ffffffffffffffff8111156128835761288261210d565b5b61288f878288016127ea565b91505092959194509250565b600082825260208201905092915050565b60006128b7826121cd565b6128c1818561289b565b93506128d18185602086016121e9565b6128da81612213565b840191505092915050565b6000819050919050565b600061290a612905612900846122e2565b6128e5565b6122e2565b9050919050565b600061291c826128ef565b9050919050565b600061292e82612911565b9050919050565b61293e81612923565b82525050565b600081519050919050565b600082825260208201905092915050565b6000819050602082019050919050565b6129798161227f565b82525050565b600061298b8383612970565b60208301905092915050565b6000602082019050919050565b60006129af82612944565b6129b9818561294f565b93506129c483612960565b8060005b838110156129f55781516129dc888261297f565b97506129e783612997565b9250506001810190506129c8565b5085935050505092915050565b600060a0830160008301518482036000860152612a1f82826128ac565b9150506020830151612a346020860182612935565b5060408301518482036040860152612a4c82826129a4565b91505060608301518482036060860152612a6682826129a4565b9150506080830151612a7b6080860182612970565b508091505092915050565b60006020820190508181036000830152612aa08184612a02565b905092915050565b60008060408385031215612abf57612abe612108565b5b6000612acd85828601612355565b9250506020612ade85828601612355565b9150509250929050565b7f4e487b7100000000000000000000000000000000000000000000000000000000600052602260045260246000fd5b60006002820490506001821680612b2f57607f821691505b602082108103612b4257612b41612ae8565b5b50919050565b6000606082019050612b5d6000830186612314565b612b6a6020830185612652565b612b776040830184612314565b949350505050565b7f494420646f65736e742065786973740000000000000000000000000000000000600082015250565b6000612bb5600f836121d8565b9150612bc082612b7f565b602082019050919050565b60006020820190508181036000830152612be481612ba8565b9050919050565b7f4e487b7100000000000000000000000000000000000000000000000000000000600052601160045260246000fd5b6000612c258261227f565b9150612c308361227f565b9250828202612c3e8161227f565b91508282048414831517612c5557612c54612beb565b5b5092915050565b7f496e76616c696420666565207061696400000000000000000000000000000000600082015250565b6000612c926010836121d8565b9150612c9d82612c5c565b602082019050919050565b60006020820190508181036000830152612cc181612c85565b9050919050565b600081549050919050565b600082825260208201905092915050565b60008190508160005260206000209050919050565b60008160001c9050919050565b6000819050919050565b6000612d23612d1e83612cf9565b612d06565b9050919050565b6000612d368254612d10565b9050919050565b6000600182019050919050565b6000612d5582612cc8565b612d5f8185612cd3565b9350612d6a83612ce4565b8060005b83811015612da257612d7f82612d2a565b612d89888261297f565b9750612d9483612d3d565b925050600181019050612d6e565b5085935050505092915050565b600082825260208201905092915050565b50565b6000612dd0600083612daf565b9150612ddb82612dc0565b600082019050919050565b600060a082019050612dfb6000830187612314565b612e086020830186612314565b8181036040830152612e1a8185612d4a565b90508181036060830152612e2e8184612d4a565b90508181036080830152612e4181612dc3565b905095945050505050565b7f4e6f204944000000000000000000000000000000000000000000000000000000600082015250565b6000612e826005836121d8565b9150612e8d82612e4c565b602082019050919050565b60006020820190508181036000830152612eb181612e75565b9050919050565b7f4e6f20746f6b656e494473000000000000000000000000000000000000000000600082015250565b6000612eee600b836121d8565b9150612ef982612eb8565b602082019050919050565b60006020820190508181036000830152612f1d81612ee1565b9050919050565b7f4d6174657269616c73206c656e677468206d69736d6174636800000000000000600082015250565b6000612f5a6019836121d8565b9150612f6582612f24565b602082019050919050565b60006020820190508181036000830152612f8981612f4d565b9050919050565b7f49442074616b656e000000000000000000000000000000000000000000000000600082015250565b6000612fc66008836121d8565b9150612fd182612f90565b602082019050919050565b60006020820190508181036000830152612ff581612fb9565b9050919050565b60008190508160005260206000209050919050565b60006020601f8301049050919050565b600082821b905092915050565b60006008830261305e7fffffffffffffffffffffffffffffffffffffffffffffffffffffffffffffffff82613021565b6130688683613021565b95508019841693508086168417925050509392505050565b600061309b6130966130918461227f565b6128e5565b61227f565b9050919050565b6000819050919050565b6130b583613080565b6130c96130c1826130a2565b84845461302e565b825550505050565b600090565b6130de6130d1565b6130e98184846130ac565b505050565b5b8181101561310d576131026000826130d6565b6001810190506130ef565b5050565b601f8211156131525761312381612ffc565b61312c84613011565b8101602085101561313b578190505b61314f61314785613011565b8301826130ee565b50505b505050565b600082821c905092915050565b600061317560001984600802613157565b1980831691505092915050565b600061318e8383613164565b9150826002028217905092915050565b6131a7826121cd565b67ffffffffffffffff8111156131c0576131bf6126ed565b5b6131ca8254612b17565b6131d5828285613111565b600060209050601f83116001811461320857600084156131f6578287015190505b6132008582613182565b865550613268565b601f19841661321686612ffc565b60005b8281101561323e57848901518255600182019150602085019450602081019050613219565b8683101561325b5784890151613257601f891682613164565b8355505b6001600288020188555050505b505050505050565b600081905092915050565b6000613286826121cd565b6132908185613270565b93506132a08185602086016121e9565b80840191505092915050565b60006132b8828561327b565b91506132c4828461327b565b91508190509392505050565b600081519050919050565b60006132e6826132d0565b6132f08185612daf565b93506133008185602086016121e9565b61330981612213565b840191505092915050565b60006080820190506133296000830187612314565b6133366020830186612314565b6133436040830185612652565b818103606083015261335581846132db565b905095945050505050565b60008151905061336f8161213e565b92915050565b60006020828403121561338b5761338a612108565b5b600061339984828501613360565b91505092915050565b7f4e487b7100000000000000000000000000000000000000000000000000000000600052601260045260246000fd5b60006040820190506133e66000830185612314565b6133f36020830184612652565b939250505056fea2646970667358221220486de96b300d0ebf3bcc12a195dd6a869bdbadeb3ef424835c76e777e1c4aa4564736f6c63430008180033",
  "linkReferences": {},
  "deployedLinkReferences": {}
}