{
  "_format": "hh-sol-artifact-1",
  "contractName": "Land",
  "sourceName": "contracts/land/Land.sol",
  "abi": [
    {
      "inputs": [
        {
          "internalType": "contract IERC20",
          "name": "reward_token",
          "type": "address"
        }
      ],
      "stateMutability": "nonpayable",
      "type": "constructor"
    },
    {
      "anonymous": false,
      "inputs": [
        {
          "indexed": false,
          "internalType": "address",
          "name": "from",
          "type": "address"
        },
        {
          "indexed": false,
          "internalType": "address",
          "name": "to",
          "type": "address"
        },
        {
          "indexed": false,
          "internalType": "uint256",
          "name": "gold",
          "type": "uint256"
        }
      ],
      "name": "Gold_Transferred",
      "type": "event"
    },
    {
      "anonymous": false,
      "inputs": [
        {
          "indexed": true,
          "internalType": "uint8",
          "name": "x",
          "type": "uint8"
        },
        {
          "indexed": true,
          "internalType": "uint8",
          "name": "y",
          "type": "uint8"
        },
        {
          "indexed": true,
          "internalType": "address",
          "name": "new_owner",
          "type": "address"
        },
        {
          "indexed": false,
          "internalType": "uint16",
          "name": "new_population",
          "type": "uint16"
        },
        {
          "indexed": false,
          "internalType": "uint8",
          "name": "development_level",
          "type": "uint8"
        }
      ],
      "name": "Land_Bought",
      "type": "event"
    },
    {
      "anonymous": false,
      "inputs": [
        {
          "indexed": true,
          "internalType": "uint8",
          "name": "x",
          "type": "uint8"
        },
        {
          "indexed": true,
          "internalType": "uint8",
          "name": "y",
          "type": "uint8"
        },
        {
          "indexed": true,
          "internalType": "address",
          "name": "new_owner",
          "type": "address"
        }
      ],
      "name": "Land_Transferred",
      "type": "event"
    },
    {
      "anonymous": false,
      "inputs": [
        {
          "indexed": true,
          "internalType": "uint8",
          "name": "x",
          "type": "uint8"
        },
        {
          "indexed": true,
          "internalType": "uint8",
          "name": "y",
          "type": "uint8"
        },
        {
          "indexed": true,
          "internalType": "address",
          "name": "buyer",
          "type": "address"
        }
      ],
      "name": "Market_Bought",
      "type": "event"
    },
    {
      "anonymous": false,
      "inputs": [
        {
          "indexed": true,
          "internalType": "uint8",
          "name": "x",
          "type": "uint8"
        },
        {
          "indexed": true,
          "internalType": "uint8",
          "name": "y",
          "type": "uint8"
        },
        {
          "indexed": true,
          "internalType": "address",
          "name": "poster",
          "type": "address"
        },
        {
          "indexed": false,
          "internalType": "uint256",
          "name": "price",
          "type": "uint256"
        }
      ],
      "name": "Market_Posted",
      "type": "event"
    },
    {
      "anonymous": false,
      "inputs": [
        {
          "indexed": true,
          "internalType": "uint8",
          "name": "x",
          "type": "uint8"
        },
        {
          "indexed": true,
          "internalType": "uint8",
          "name": "y",
          "type": "uint8"
        },
        {
          "indexed": false,
          "internalType": "uint16",
          "name": "new_population",
          "type": "uint16"
        }
      ],
      "name": "New_Population",
      "type": "event"
    },
    {
      "inputs": [
        {
          "internalType": "address payable",
          "name": "a",
          "type": "address"
        },
        {
          "internalType": "uint256",
          "name": "amt",
          "type": "uint256"
        }
      ],
      "name": "award",
      "outputs": [],
      "stateMutability": "nonpayable",
      "type": "function"
    },
    {
      "inputs": [],
      "name": "dep",
      "outputs": [
        {
          "internalType": "uint256",
          "name": "",
          "type": "uint256"
        }
      ],
      "stateMutability": "view",
      "type": "function"
    },
    {
      "inputs": [],
      "name": "ending_balance",
      "outputs": [
        {
          "internalType": "uint256",
          "name": "",
          "type": "uint256"
        }
      ],
      "stateMutability": "view",
      "type": "function"
    },
    {
      "inputs": [
        {
          "internalType": "address",
          "name": "a",
          "type": "address"
        }
      ],
      "name": "get_gold",
      "outputs": [
        {
          "internalType": "uint256",
          "name": "",
          "type": "uint256"
        }
      ],
      "stateMutability": "view",
      "type": "function"
    },
    {
      "inputs": [
        {
          "internalType": "int64",
          "name": "x",
          "type": "int64"
        },
        {
          "internalType": "int64",
          "name": "y",
          "type": "int64"
        }
      ],
      "name": "get_gold_value_of_tile",
      "outputs": [
        {
          "internalType": "int64",
          "name": "",
          "type": "int64"
        }
      ],
      "stateMutability": "view",
      "type": "function"
    },
    {
      "inputs": [
        {
          "internalType": "int64",
          "name": "x",
          "type": "int64"
        },
        {
          "internalType": "int64",
          "name": "y",
          "type": "int64"
        }
      ],
      "name": "get_height",
      "outputs": [
        {
          "internalType": "int64",
          "name": "",
          "type": "int64"
        }
      ],
      "stateMutability": "view",
      "type": "function"
    },
    {
      "inputs": [
        {
          "internalType": "uint8",
          "name": "x",
          "type": "uint8"
        },
        {
          "internalType": "uint8",
          "name": "y",
          "type": "uint8"
        }
      ],
      "name": "get_land_price",
      "outputs": [
        {
          "internalType": "uint256",
          "name": "",
          "type": "uint256"
        }
      ],
      "stateMutability": "view",
      "type": "function"
    },
    {
      "inputs": [],
      "name": "get_passable_threshold",
      "outputs": [
        {
          "internalType": "uint256",
          "name": "",
          "type": "uint256"
        }
      ],
      "stateMutability": "view",
      "type": "function"
    },
    {
      "inputs": [],
      "name": "get_pool_total",
      "outputs": [
        {
          "internalType": "uint256",
          "name": "",
          "type": "uint256"
        }
      ],
      "stateMutability": "view",
      "type": "function"
    },
    {
      "inputs": [],
      "name": "get_season_ended",
      "outputs": [
        {
          "internalType": "bool",
          "name": "",
          "type": "bool"
        }
      ],
      "stateMutability": "view",
      "type": "function"
    },
    {
      "inputs": [
        {
          "internalType": "int64",
          "name": "x",
          "type": "int64"
        },
        {
          "internalType": "int64",
          "name": "y",
          "type": "int64"
        }
      ],
      "name": "get_tile",
      "outputs": [
        {
          "internalType": "int64",
          "name": "",
          "type": "int64"
        }
      ],
      "stateMutability": "pure",
      "type": "function"
    },
    {
      "inputs": [
        {
          "internalType": "uint8",
          "name": "x",
          "type": "uint8"
        },
        {
          "internalType": "uint8",
          "name": "y",
          "type": "uint8"
        }
      ],
      "name": "get_unit_price",
      "outputs": [
        {
          "internalType": "uint256",
          "name": "",
          "type": "uint256"
        }
      ],
      "stateMutability": "view",
      "type": "function"
    },
    {
      "inputs": [],
      "name": "get_winnings",
      "outputs": [
        {
          "internalType": "uint256",
          "name": "",
          "type": "uint256"
        }
      ],
      "stateMutability": "view",
      "type": "function"
    },
    {
      "inputs": [
        {
          "internalType": "address",
          "name": "",
          "type": "address"
        }
      ],
      "name": "gold_per_second",
      "outputs": [
        {
          "internalType": "uint256",
          "name": "",
          "type": "uint256"
        }
      ],
      "stateMutability": "view",
      "type": "function"
    },
    {
      "inputs": [
        {
          "internalType": "int64",
          "name": "n",
          "type": "int64"
        }
      ],
      "name": "integer_noise",
      "outputs": [
        {
          "internalType": "int64",
          "name": "",
          "type": "int64"
        }
      ],
      "stateMutability": "pure",
      "type": "function"
    },
    {
      "inputs": [
        {
          "internalType": "int64",
          "name": "x",
          "type": "int64"
        },
        {
          "internalType": "int64",
          "name": "y",
          "type": "int64"
        }
      ],
      "name": "local_average_noise",
      "outputs": [
        {
          "internalType": "int64",
          "name": "",
          "type": "int64"
        }
      ],
      "stateMutability": "pure",
      "type": "function"
    },
    {
      "inputs": [],
      "name": "passable_threshold",
      "outputs": [
        {
          "internalType": "uint256",
          "name": "",
          "type": "uint256"
        }
      ],
      "stateMutability": "view",
      "type": "function"
    },
    {
      "inputs": [],
      "name": "pool_div",
      "outputs": [
        {
          "internalType": "uint256",
          "name": "",
          "type": "uint256"
        }
      ],
      "stateMutability": "view",
      "type": "function"
    },
    {
      "inputs": [],
      "name": "pool_nom",
      "outputs": [
        {
          "internalType": "uint256",
          "name": "",
          "type": "uint256"
        }
      ],
      "stateMutability": "view",
      "type": "function"
    },
    {
      "inputs": [
        {
          "internalType": "int64",
          "name": "x",
          "type": "int64"
        },
        {
          "internalType": "int64",
          "name": "y",
          "type": "int64"
        }
      ],
      "name": "stacked_squares",
      "outputs": [
        {
          "internalType": "int64",
          "name": "",
          "type": "int64"
        }
      ],
      "stateMutability": "pure",
      "type": "function"
    },
    {
      "inputs": [
        {
          "internalType": "int64",
          "name": "",
          "type": "int64"
        },
        {
          "internalType": "int64",
          "name": "",
          "type": "int64"
        }
      ],
      "name": "tile_development_level",
      "outputs": [
        {
          "internalType": "uint8",
          "name": "",
          "type": "uint8"
        }
      ],
      "stateMutability": "view",
      "type": "function"
    },
    {
      "inputs": [
        {
          "internalType": "int64",
          "name": "",
          "type": "int64"
        },
        {
          "internalType": "int64",
          "name": "",
          "type": "int64"
        }
      ],
      "name": "tile_owner",
      "outputs": [
        {
          "internalType": "address payable",
          "name": "",
          "type": "address"
        }
      ],
      "stateMutability": "view",
      "type": "function"
    },
    {
      "inputs": [
        {
          "internalType": "address",
          "name": "to",
          "type": "address"
        },
        {
          "internalType": "uint256",
          "name": "gold",
          "type": "uint256"
        }
      ],
      "name": "transfer_gold",
      "outputs": [],
      "stateMutability": "nonpayable",
      "type": "function"
    },
    {
      "inputs": [
        {
          "internalType": "int64",
          "name": "",
          "type": "int64"
        },
        {
          "internalType": "int64",
          "name": "",
          "type": "int64"
        }
      ],
      "name": "units_on_tile",
      "outputs": [
        {
          "internalType": "uint8",
          "name": "",
          "type": "uint8"
        }
      ],
      "stateMutability": "view",
      "type": "function"
    },
    {
      "inputs": [
        {
          "internalType": "address",
          "name": "",
          "type": "address"
        }
      ],
      "name": "victory_tiles_owned",
      "outputs": [
        {
          "internalType": "uint32",
          "name": "",
          "type": "uint32"
        }
      ],
      "stateMutability": "view",
      "type": "function"
    },
    {
      "inputs": [],
      "name": "withdraw_winnings",
      "outputs": [],
      "stateMutability": "payable",
      "type": "function"
    },
    {
      "inputs": [
        {
          "internalType": "address",
          "name": "",
          "type": "address"
        }
      ],
      "name": "withdrew",
      "outputs": [
        {
          "internalType": "bool",
          "name": "",
          "type": "bool"
        }
      ],
      "stateMutability": "view",
      "type": "function"
    }
  ],
  "bytecode": "0x608060405264e8d4a510006000556402540be400600155620186a0600255610fa06003556009600655600a6007556003600860006101000a81548160ff021916908360ff160217905550607960095560a9600a60006101000a81548160ff021916908360ff1602179055506006600b556063600c60006101000a81548160ff021916908360ff1602179055506001600c60096101000a81548160ff021916908315150217905550348015620000b357600080fd5b5060405162001d8738038062001d878339818101604052810190620000d99190620001a6565b4360048190555080600c600a6101000a81548173ffffffffffffffffffffffffffffffffffffffff021916908373ffffffffffffffffffffffffffffffffffffffff16021790555050620001d8565b600080fd5b600073ffffffffffffffffffffffffffffffffffffffff82169050919050565b60006200015a826200012d565b9050919050565b60006200016e826200014d565b9050919050565b620001808162000161565b81146200018c57600080fd5b50565b600081519050620001a08162000175565b92915050565b600060208284031215620001bf57620001be62000128565b5b6000620001cf848285016200018f565b91505092915050565b611b9f80620001e86000396000f3fe60806040526004361061019c5760003560e01c80639498f882116100ec578063bfe106c61161008a578063e7fcef3c11610064578063e7fcef3c14610643578063e8e42d7114610680578063ef68fcee146106ab578063f00a8e92146106d65761019c565b8063bfe106c6146105b2578063cbb7e14e146105ef578063d4d330c01461061a5761019c565b80639f7bc123116100c65780639f7bc123146104be578063ad10e065146104fb578063b7261f8214610538578063bbfa5e2d146105755761019c565b80639498f8821461040757806397d6634f146104445780639c435a4a146104815761019c565b8063629ff14c1161015957806377e7c5241161013357806377e7c5241461035b5780637b53a1b414610386578063855a0fe3146103b157806391a9938e146103dc5761019c565b8063629ff14c146102a45780637407716a146102e1578063753be2981461031e5761019c565b806309bd065b146101a15780634016f13b146101cc57806341d036511461020957806347cb8a91146102135780634e069a5d146102505780635d8a776e1461027b575b600080fd5b3480156101ad57600080fd5b506101b6610713565b6040516101c391906112c9565b60405180910390f35b3480156101d857600080fd5b506101f360048036038101906101ee9190611322565b610767565b60405161020091906112c9565b60405180910390f35b610211610774565b005b34801561021f57600080fd5b5061023a600480360381019061023591906113c0565b610928565b604051610247919061140c565b60405180910390f35b34801561025c57600080fd5b5061026561094b565b6040516102729190611442565b60405180910390f35b34801561028757600080fd5b506102a2600480360381019061029d91906114c7565b61096f565b005b3480156102b057600080fd5b506102cb60048036038101906102c69190611540565b610a4a565b6040516102d8919061158f565b60405180910390f35b3480156102ed57600080fd5b50610308600480360381019061030391906113c0565b610a56565b60405161031591906112c9565b60405180910390f35b34801561032a57600080fd5b5061034560048036038101906103409190611540565b610b3e565b604051610352919061158f565b60405180910390f35b34801561036757600080fd5b50610370610ba3565b60405161037d91906112c9565b60405180910390f35b34801561039257600080fd5b5061039b610ba9565b6040516103a891906112c9565b60405180910390f35b3480156103bd57600080fd5b506103c6610baf565b6040516103d391906112c9565b60405180910390f35b3480156103e857600080fd5b506103f1610bb9565b6040516103fe91906112c9565b60405180910390f35b34801561041357600080fd5b5061042e60048036038101906104299190611540565b610bbf565b60405161043b91906115b9565b60405180910390f35b34801561045057600080fd5b5061046b600480360381019061046691906115d4565b610bee565b604051610478919061158f565b60405180910390f35b34801561048d57600080fd5b506104a860048036038101906104a39190611540565b610c7b565b6040516104b5919061158f565b60405180910390f35b3480156104ca57600080fd5b506104e560048036038101906104e09190611540565b610c9c565b6040516104f2919061158f565b60405180910390f35b34801561050757600080fd5b50610522600480360381019061051d9190611540565b610d59565b60405161052f919061158f565b60405180910390f35b34801561054457600080fd5b5061055f600480360381019061055a9190611322565b610e8f565b60405161056c91906112c9565b60405180910390f35b34801561058157600080fd5b5061059c600480360381019061059791906113c0565b610e9b565b6040516105a991906112c9565b60405180910390f35b3480156105be57600080fd5b506105d960048036038101906105d49190611540565b610eb3565b6040516105e69190611610565b60405180910390f35b3480156105fb57600080fd5b50610604610ef5565b60405161061191906112c9565b60405180910390f35b34801561062657600080fd5b50610641600480360381019061063c919061162b565b610f6f565b005b34801561064f57600080fd5b5061066a600480360381019061066591906113c0565b6110dc565b6040516106779190611442565b60405180910390f35b34801561068c57600080fd5b506106956110fc565b6040516106a291906112c9565b60405180910390f35b3480156106b757600080fd5b506106c061127b565b6040516106cd91906112c9565b60405180910390f35b3480156106e257600080fd5b506106fd60048036038101906106f89190611540565b611281565b60405161070a91906115b9565b60405180910390f35b600061071d61094b565b1561074657600754600654600554610735919061169a565b61073f919061170b565b9050610764565b60075460065447610757919061169a565b610761919061170b565b90505b90565b6000600154905092915050565b61077c61094b565b6107bb576040517f08c379a00000000000000000000000000000000000000000000000000000000081526004016107b290611799565b60405180910390fd5b601460003373ffffffffffffffffffffffffffffffffffffffff1673ffffffffffffffffffffffffffffffffffffffff16815260200190815260200160002060009054906101000a900460ff1615610848576040517f08c379a000000000000000000000000000000000000000000000000000000000815260040161083f90611805565b60405180910390fd5b600c60099054906101000a900460ff1615610880576000600c60096101000a81548160ff021916908315150217905550476005819055505b6001601460003373ffffffffffffffffffffffffffffffffffffffff1673ffffffffffffffffffffffffffffffffffffffff16815260200190815260200160002060006101000a81548160ff0219169083151502179055503373ffffffffffffffffffffffffffffffffffffffff166108fc6108fa6110fc565b9081150290604051600060405180830381858888f19350505050158015610925573d6000803e3d6000fd5b50565b60136020528060005260406000206000915054906101000a900463ffffffff1681565b6000600a60009054906101000a900460ff1660ff16610968610ef5565b1015905090565b600c600a9054906101000a900473ffffffffffffffffffffffffffffffffffffffff1673ffffffffffffffffffffffffffffffffffffffff163373ffffffffffffffffffffffffffffffffffffffff16146109ff576040517f08c379a00000000000000000000000000000000000000000000000000000000081526004016109f690611897565b60405180910390fd5b8173ffffffffffffffffffffffffffffffffffffffff166108fc829081150290604051600060405180830381858888f19350505050158015610a45573d6000803e3d6000fd5b505050565b60006001905092915050565b6000601260008373ffffffffffffffffffffffffffffffffffffffff1673ffffffffffffffffffffffffffffffffffffffff1681526020019081526020016000205442610aa391906118b7565b601160008473ffffffffffffffffffffffffffffffffffffffff1673ffffffffffffffffffffffffffffffffffffffff16815260200190815260200160002054610aed919061169a565b601060008473ffffffffffffffffffffffffffffffffffffffff1673ffffffffffffffffffffffffffffffffffffffff16815260200190815260200160002054610b3791906118eb565b9050919050565b60006107d0610b65601985610b53919061191f565b602a85610b60919061191f565b610c9c565b610b87600486610b75919061191f565b600786610b82919061191f565b610d59565b610b919190611989565b610b9b919061191f565b905092915050565b60065481565b60055481565b6000600454905090565b60075481565b600d6020528160005260406000206020528060005260406000206000915091509054906101000a900460ff1681565b600081600d8360070b901d1891506000637fffffff635208dd0d630131071f61ec4d8687610c1c91906119e9565b610c2691906119e9565b610c309190611989565b85610c3b91906119e9565b610c459190611989565b1690506101006340000000620186a083610c5f91906119e9565b610c69919061191f565b610c739190611a26565b915050919050565b6000610c878383610b3e565b612710610c94919061191f565b905092915050565b60008060005b600560070b8160070b1215610d2957610cdb85838387610cc291906119e9565b610ccc9190611989565b610cd69190611a57565b610bee565b610d0585848489610cec91906119e9565b610cf69190611989565b610d009190611989565b610bee565b610d0f9190611989565b82610d1a9190611989565b91508080600101915050610ca2565b5060026005610d3891906119e9565b6103e882610d4691906119e9565b610d50919061191f565b91505092915050565b60008060038484610d6a9190611a57565b610d74919061191f565b84610d7f9190611989565b9050600060038486610d919190611989565b610d9b919061191f565b84610da69190611a57565b90506000610dbf600183610dba9190611989565b610bee565b610dc884610bee565b610dd29190611989565b610ddb83610bee565b610df0600186610deb9190611989565b610bee565b610dfa9190611989565b610e0384610bee565b610e18600187610e139190611a57565b610bee565b610e229190611989565b610e37600186610e329190611a57565b610bee565b610e4087610bee565b610e4a9190611989565b610e549190611989565b610e5e9190611989565b610e689190611989565b905060086103e882610e7a91906119e9565b610e84919061191f565b935050505092915050565b60008054905092915050565b60116020528060005260406000206000915090505481565b600e6020528160005260406000206020528060005260406000206000915091509054906101000a900473ffffffffffffffffffffffffffffffffffffffff1681565b6000600860035460045443610f0a91906118b7565b610f14919061170b565b1115610f3457600a60009054906101000a900460ff1660ff169050610f6c565b600b5460035460045443610f4891906118b7565b610f52919061170b565b610f5c919061169a565b600954610f6991906118eb565b90505b90565b80601060003373ffffffffffffffffffffffffffffffffffffffff1673ffffffffffffffffffffffffffffffffffffffff168152602001908152602001600020541015610ff1576040517f08c379a0000000000000000000000000000000000000000000000000000000008152600401610fe890611b03565b60405180910390fd5b80601060003373ffffffffffffffffffffffffffffffffffffffff1673ffffffffffffffffffffffffffffffffffffffff168152602001908152602001600020600082825461104091906118b7565b9250508190555080601060008473ffffffffffffffffffffffffffffffffffffffff1673ffffffffffffffffffffffffffffffffffffffff168152602001908152602001600020600082825461109691906118eb565b925050819055507fb20c006caa32087d25b2459ae105eaeb6f7733a8c83a70340802781829a1e2773383836040516110d093929190611b32565b60405180910390a15050565b60146020528060005260406000206000915054906101000a900460ff1681565b600080600c60019054906101000a900463ffffffff1663ffffffff16036111265760009050611278565b6000600554036111d557600c60019054906101000a900463ffffffff1663ffffffff16601360003373ffffffffffffffffffffffffffffffffffffffff1673ffffffffffffffffffffffffffffffffffffffff16815260200190815260200160002060009054906101000a900463ffffffff1663ffffffff16600754600654476111b0919061169a565b6111ba919061170b565b6111c4919061169a565b6111ce919061170b565b9050611278565b600c60019054906101000a900463ffffffff1663ffffffff16601360003373ffffffffffffffffffffffffffffffffffffffff1673ffffffffffffffffffffffffffffffffffffffff16815260200190815260200160002060009054906101000a900463ffffffff1663ffffffff16600754600654600554611257919061169a565b611261919061170b565b61126b919061169a565b611275919061170b565b90505b90565b60095481565b600f6020528160005260406000206020528060005260406000206000915091509054906101000a900460ff1681565b6000819050919050565b6112c3816112b0565b82525050565b60006020820190506112de60008301846112ba565b92915050565b600080fd5b600060ff82169050919050565b6112ff816112e9565b811461130a57600080fd5b50565b60008135905061131c816112f6565b92915050565b60008060408385031215611339576113386112e4565b5b60006113478582860161130d565b92505060206113588582860161130d565b9150509250929050565b600073ffffffffffffffffffffffffffffffffffffffff82169050919050565b600061138d82611362565b9050919050565b61139d81611382565b81146113a857600080fd5b50565b6000813590506113ba81611394565b92915050565b6000602082840312156113d6576113d56112e4565b5b60006113e4848285016113ab565b91505092915050565b600063ffffffff82169050919050565b611406816113ed565b82525050565b600060208201905061142160008301846113fd565b92915050565b60008115159050919050565b61143c81611427565b82525050565b60006020820190506114576000830184611433565b92915050565b600061146882611362565b9050919050565b6114788161145d565b811461148357600080fd5b50565b6000813590506114958161146f565b92915050565b6114a4816112b0565b81146114af57600080fd5b50565b6000813590506114c18161149b565b92915050565b600080604083850312156114de576114dd6112e4565b5b60006114ec85828601611486565b92505060206114fd858286016114b2565b9150509250929050565b60008160070b9050919050565b61151d81611507565b811461152857600080fd5b50565b60008135905061153a81611514565b92915050565b60008060408385031215611557576115566112e4565b5b60006115658582860161152b565b92505060206115768582860161152b565b9150509250929050565b61158981611507565b82525050565b60006020820190506115a46000830184611580565b92915050565b6115b3816112e9565b82525050565b60006020820190506115ce60008301846115aa565b92915050565b6000602082840312156115ea576115e96112e4565b5b60006115f88482850161152b565b91505092915050565b61160a8161145d565b82525050565b60006020820190506116256000830184611601565b92915050565b60008060408385031215611642576116416112e4565b5b6000611650858286016113ab565b9250506020611661858286016114b2565b9150509250929050565b7f4e487b7100000000000000000000000000000000000000000000000000000000600052601160045260246000fd5b60006116a5826112b0565b91506116b0836112b0565b92508282026116be816112b0565b915082820484148315176116d5576116d461166b565b5b5092915050565b7f4e487b7100000000000000000000000000000000000000000000000000000000600052601260045260246000fd5b6000611716826112b0565b9150611721836112b0565b925082611731576117306116dc565b5b828204905092915050565b600082825260208201905092915050565b7f536561736f6e206861736e7420656e6465640000000000000000000000000000600082015250565b600061178360128361173c565b915061178e8261174d565b602082019050919050565b600060208201905081810360008301526117b281611776565b9050919050565b7f416c726561647920776974686472657700000000000000000000000000000000600082015250565b60006117ef60108361173c565b91506117fa826117b9565b602082019050919050565b6000602082019050818103600083015261181e816117e2565b9050919050565b7f73656e646572207761736e742072657761726420746f6b656e2061646472657360008201527f7300000000000000000000000000000000000000000000000000000000000000602082015250565b600061188160218361173c565b915061188c82611825565b604082019050919050565b600060208201905081810360008301526118b081611874565b9050919050565b60006118c2826112b0565b91506118cd836112b0565b92508282039050818111156118e5576118e461166b565b5b92915050565b60006118f6826112b0565b9150611901836112b0565b92508282019050808211156119195761191861166b565b5b92915050565b600061192a82611507565b915061193583611507565b925082611945576119446116dc565b5b600160000383147fffffffffffffffffffffffffffffffffffffffffffffffff80000000000000008314161561197e5761197d61166b565b5b828205905092915050565b600061199482611507565b915061199f83611507565b925082820190507fffffffffffffffffffffffffffffffffffffffffffffffff80000000000000008112677fffffffffffffff821317156119e3576119e261166b565b5b92915050565b60006119f482611507565b91506119ff83611507565b9250828202611a0d81611507565b9150808214611a1f57611a1e61166b565b5b5092915050565b6000611a3182611507565b9150611a3c83611507565b925082611a4c57611a4b6116dc565b5b828207905092915050565b6000611a6282611507565b9150611a6d83611507565b92508282039050677fffffffffffffff81137fffffffffffffffffffffffffffffffffffffffffffffffff800000000000000082121715611ab157611ab061166b565b5b92915050565b7f496e73756666696369656e7420676f6c64000000000000000000000000000000600082015250565b6000611aed60118361173c565b9150611af882611ab7565b602082019050919050565b60006020820190508181036000830152611b1c81611ae0565b9050919050565b611b2c81611382565b82525050565b6000606082019050611b476000830186611b23565b611b546020830185611b23565b611b6160408301846112ba565b94935050505056fea2646970667358221220e66132c271780c2c5c0c9eda422f6b7599320daa813421f50edb3527f64bee0864736f6c63430008180033",
  "linkReferences": {},
  "deployedLinkReferences": {}
}