{
  "_format": "hh-sol-artifact-1",
  "contractName": "Refinery",
  "sourceName": "contracts/converters/Refinery.sol",
  "abi": [
    {
      "inputs": [
        {
          "internalType": "string",
          "name": "baseURI",
          "type": "string"
        }
      ],
      "stateMutability": "nonpayable",
      "type": "constructor"
    },
    {
      "inputs": [
        {
          "internalType": "address",
          "name": "sender",
          "type": "address"
        },
        {
          "internalType": "uint256",
          "name": "balance",
          "type": "uint256"
        },
        {
          "internalType": "uint256",
          "name": "needed",
          "type": "uint256"
        },
        {
          "internalType": "uint256",
          "name": "tokenId",
          "type": "uint256"
        }
      ],
      "name": "ERC1155InsufficientBalance",
      "type": "error"
    },
    {
      "inputs": [
        {
          "internalType": "address",
          "name": "approver",
          "type": "address"
        }
      ],
      "name": "ERC1155InvalidApprover",
      "type": "error"
    },
    {
      "inputs": [
        {
          "internalType": "uint256",
          "name": "idsLength",
          "type": "uint256"
        },
        {
          "internalType": "uint256",
          "name": "valuesLength",
          "type": "uint256"
        }
      ],
      "name": "ERC1155InvalidArrayLength",
      "type": "error"
    },
    {
      "inputs": [
        {
          "internalType": "address",
          "name": "operator",
          "type": "address"
        }
      ],
      "name": "ERC1155InvalidOperator",
      "type": "error"
    },
    {
      "inputs": [
        {
          "internalType": "address",
          "name": "receiver",
          "type": "address"
        }
      ],
      "name": "ERC1155InvalidReceiver",
      "type": "error"
    },
    {
      "inputs": [
        {
          "internalType": "address",
          "name": "sender",
          "type": "address"
        }
      ],
      "name": "ERC1155InvalidSender",
      "type": "error"
    },
    {
      "inputs": [
        {
          "internalType": "address",
          "name": "operator",
          "type": "address"
        },
        {
          "internalType": "address",
          "name": "owner",
          "type": "address"
        }
      ],
      "name": "ERC1155MissingApprovalForAll",
      "type": "error"
    },
    {
      "inputs": [
        {
          "internalType": "address",
          "name": "owner",
          "type": "address"
        }
      ],
      "name": "OwnableInvalidOwner",
      "type": "error"
    },
    {
      "inputs": [
        {
          "internalType": "address",
          "name": "account",
          "type": "address"
        }
      ],
      "name": "OwnableUnauthorizedAccount",
      "type": "error"
    },
    {
      "anonymous": false,
      "inputs": [
        {
          "indexed": true,
          "internalType": "address",
          "name": "account",
          "type": "address"
        },
        {
          "indexed": true,
          "internalType": "address",
          "name": "operator",
          "type": "address"
        },
        {
          "indexed": false,
          "internalType": "bool",
          "name": "approved",
          "type": "bool"
        }
      ],
      "name": "ApprovalForAll",
      "type": "event"
    },
    {
      "anonymous": false,
      "inputs": [
        {
          "indexed": true,
          "internalType": "address",
          "name": "previousOwner",
          "type": "address"
        },
        {
          "indexed": true,
          "internalType": "address",
          "name": "newOwner",
          "type": "address"
        }
      ],
      "name": "OwnershipTransferred",
      "type": "event"
    },
    {
      "anonymous": false,
      "inputs": [
        {
          "indexed": true,
          "internalType": "address",
          "name": "operator",
          "type": "address"
        },
        {
          "indexed": true,
          "internalType": "address",
          "name": "from",
          "type": "address"
        },
        {
          "indexed": true,
          "internalType": "address",
          "name": "to",
          "type": "address"
        },
        {
          "indexed": false,
          "internalType": "uint256[]",
          "name": "ids",
          "type": "uint256[]"
        },
        {
          "indexed": false,
          "internalType": "uint256[]",
          "name": "values",
          "type": "uint256[]"
        }
      ],
      "name": "TransferBatch",
      "type": "event"
    },
    {
      "anonymous": false,
      "inputs": [
        {
          "indexed": true,
          "internalType": "address",
          "name": "operator",
          "type": "address"
        },
        {
          "indexed": true,
          "internalType": "address",
          "name": "from",
          "type": "address"
        },
        {
          "indexed": true,
          "internalType": "address",
          "name": "to",
          "type": "address"
        },
        {
          "indexed": false,
          "internalType": "uint256",
          "name": "id",
          "type": "uint256"
        },
        {
          "indexed": false,
          "internalType": "uint256",
          "name": "value",
          "type": "uint256"
        }
      ],
      "name": "TransferSingle",
      "type": "event"
    },
    {
      "anonymous": false,
      "inputs": [
        {
          "indexed": false,
          "internalType": "string",
          "name": "value",
          "type": "string"
        },
        {
          "indexed": true,
          "internalType": "uint256",
          "name": "id",
          "type": "uint256"
        }
      ],
      "name": "URI",
      "type": "event"
    },
    {
      "inputs": [
        {
          "internalType": "uint256",
          "name": "id",
          "type": "uint256"
        },
        {
          "internalType": "string",
          "name": "uri",
          "type": "string"
        },
        {
          "internalType": "contract ERC20[]",
          "name": "tokens",
          "type": "address[]"
        },
        {
          "internalType": "uint256[]",
          "name": "amountsRequired",
          "type": "uint256[]"
        },
        {
          "internalType": "uint256",
          "name": "fee",
          "type": "uint256"
        }
      ],
      "name": "addBlueprint",
      "outputs": [],
      "stateMutability": "nonpayable",
      "type": "function"
    },
    {
      "inputs": [
        {
          "internalType": "address",
          "name": "account",
          "type": "address"
        },
        {
          "internalType": "uint256",
          "name": "id",
          "type": "uint256"
        }
      ],
      "name": "balanceOf",
      "outputs": [
        {
          "internalType": "uint256",
          "name": "",
          "type": "uint256"
        }
      ],
      "stateMutability": "view",
      "type": "function"
    },
    {
      "inputs": [
        {
          "internalType": "address[]",
          "name": "accounts",
          "type": "address[]"
        },
        {
          "internalType": "uint256[]",
          "name": "ids",
          "type": "uint256[]"
        }
      ],
      "name": "balanceOfBatch",
      "outputs": [
        {
          "internalType": "uint256[]",
          "name": "",
          "type": "uint256[]"
        }
      ],
      "stateMutability": "view",
      "type": "function"
    },
    {
      "inputs": [],
      "name": "collectFees",
      "outputs": [],
      "stateMutability": "nonpayable",
      "type": "function"
    },
    {
      "inputs": [
        {
          "internalType": "uint256",
          "name": "id",
          "type": "uint256"
        },
        {
          "internalType": "uint256",
          "name": "amount",
          "type": "uint256"
        },
        {
          "internalType": "bytes",
          "name": "data",
          "type": "bytes"
        }
      ],
      "name": "fulfill",
      "outputs": [],
      "stateMutability": "payable",
      "type": "function"
    },
    {
      "inputs": [
        {
          "internalType": "uint256",
          "name": "id",
          "type": "uint256"
        }
      ],
      "name": "getBlueprint",
      "outputs": [
        {
          "components": [
            {
              "internalType": "string",
              "name": "uri",
              "type": "string"
            },
            {
              "internalType": "contract ERC20[]",
              "name": "tokens",
              "type": "address[]"
            },
            {
              "internalType": "uint256[]",
              "name": "amountsRequired",
              "type": "uint256[]"
            },
            {
              "internalType": "uint256",
              "name": "fee",
              "type": "uint256"
            }
          ],
          "internalType": "struct IRefinery.Blueprint",
          "name": "",
          "type": "tuple"
        }
      ],
      "stateMutability": "view",
      "type": "function"
    },
    {
      "inputs": [
        {
          "internalType": "address",
          "name": "account",
          "type": "address"
        },
        {
          "internalType": "address",
          "name": "operator",
          "type": "address"
        }
      ],
      "name": "isApprovedForAll",
      "outputs": [
        {
          "internalType": "bool",
          "name": "",
          "type": "bool"
        }
      ],
      "stateMutability": "view",
      "type": "function"
    },
    {
      "inputs": [],
      "name": "owner",
      "outputs": [
        {
          "internalType": "address",
          "name": "",
          "type": "address"
        }
      ],
      "stateMutability": "view",
      "type": "function"
    },
    {
      "inputs": [],
      "name": "renounceOwnership",
      "outputs": [],
      "stateMutability": "nonpayable",
      "type": "function"
    },
    {
      "inputs": [
        {
          "internalType": "address",
          "name": "from",
          "type": "address"
        },
        {
          "internalType": "address",
          "name": "to",
          "type": "address"
        },
        {
          "internalType": "uint256[]",
          "name": "ids",
          "type": "uint256[]"
        },
        {
          "internalType": "uint256[]",
          "name": "values",
          "type": "uint256[]"
        },
        {
          "internalType": "bytes",
          "name": "data",
          "type": "bytes"
        }
      ],
      "name": "safeBatchTransferFrom",
      "outputs": [],
      "stateMutability": "nonpayable",
      "type": "function"
    },
    {
      "inputs": [
        {
          "internalType": "address",
          "name": "from",
          "type": "address"
        },
        {
          "internalType": "address",
          "name": "to",
          "type": "address"
        },
        {
          "internalType": "uint256",
          "name": "id",
          "type": "uint256"
        },
        {
          "internalType": "uint256",
          "name": "value",
          "type": "uint256"
        },
        {
          "internalType": "bytes",
          "name": "data",
          "type": "bytes"
        }
      ],
      "name": "safeTransferFrom",
      "outputs": [],
      "stateMutability": "nonpayable",
      "type": "function"
    },
    {
      "inputs": [
        {
          "internalType": "address",
          "name": "operator",
          "type": "address"
        },
        {
          "internalType": "bool",
          "name": "approved",
          "type": "bool"
        }
      ],
      "name": "setApprovalForAll",
      "outputs": [],
      "stateMutability": "nonpayable",
      "type": "function"
    },
    {
      "inputs": [
        {
          "internalType": "bytes4",
          "name": "interfaceId",
          "type": "bytes4"
        }
      ],
      "name": "supportsInterface",
      "outputs": [
        {
          "internalType": "bool",
          "name": "",
          "type": "bool"
        }
      ],
      "stateMutability": "view",
      "type": "function"
    },
    {
      "inputs": [
        {
          "internalType": "address",
          "name": "newOwner",
          "type": "address"
        }
      ],
      "name": "transferOwnership",
      "outputs": [],
      "stateMutability": "nonpayable",
      "type": "function"
    },
    {
      "inputs": [
        {
          "internalType": "uint256",
          "name": "",
          "type": "uint256"
        }
      ],
      "name": "uri",
      "outputs": [
        {
          "internalType": "string",
          "name": "",
          "type": "string"
        }
      ],
      "stateMutability": "view",
      "type": "function"
    }
  ],
  "bytecode": "0x60806040523480156200001157600080fd5b5060405162003d9d38038062003d9d833981810160405281019062000037919062000345565b8033600073ffffffffffffffffffffffffffffffffffffffff168173ffffffffffffffffffffffffffffffffffffffff1603620000ae5760006040517f1e4fbdf7000000000000000000000000000000000000000000000000000000008152600401620000a59190620003db565b60405180910390fd5b620000bf81620000d960201b60201c565b50620000d1816200019d60201b60201c565b50506200072a565b60008060009054906101000a900473ffffffffffffffffffffffffffffffffffffffff169050816000806101000a81548173ffffffffffffffffffffffffffffffffffffffff021916908373ffffffffffffffffffffffffffffffffffffffff1602179055508173ffffffffffffffffffffffffffffffffffffffff168173ffffffffffffffffffffffffffffffffffffffff167f8be0079c531659141344cd1fd0a4f28419497f9722a3daafe3b4186f6b6457e060405160405180910390a35050565b8060039081620001ae919062000643565b5050565b6000604051905090565b600080fd5b600080fd5b600080fd5b600080fd5b6000601f19601f8301169050919050565b7f4e487b7100000000000000000000000000000000000000000000000000000000600052604160045260246000fd5b6200021b82620001d0565b810181811067ffffffffffffffff821117156200023d576200023c620001e1565b5b80604052505050565b600062000252620001b2565b905062000260828262000210565b919050565b600067ffffffffffffffff821115620002835762000282620001e1565b5b6200028e82620001d0565b9050602081019050919050565b60005b83811015620002bb5780820151818401526020810190506200029e565b60008484015250505050565b6000620002de620002d88462000265565b62000246565b905082815260208101848484011115620002fd57620002fc620001cb565b5b6200030a8482856200029b565b509392505050565b600082601f8301126200032a5762000329620001c6565b5b81516200033c848260208601620002c7565b91505092915050565b6000602082840312156200035e576200035d620001bc565b5b600082015167ffffffffffffffff8111156200037f576200037e620001c1565b5b6200038d8482850162000312565b91505092915050565b600073ffffffffffffffffffffffffffffffffffffffff82169050919050565b6000620003c38262000396565b9050919050565b620003d581620003b6565b82525050565b6000602082019050620003f26000830184620003ca565b92915050565b600081519050919050565b7f4e487b7100000000000000000000000000000000000000000000000000000000600052602260045260246000fd5b600060028204905060018216806200044b57607f821691505b60208210810362000461576200046062000403565b5b50919050565b60008190508160005260206000209050919050565b60006020601f8301049050919050565b600082821b905092915050565b600060088302620004cb7fffffffffffffffffffffffffffffffffffffffffffffffffffffffffffffffff826200048c565b620004d786836200048c565b95508019841693508086168417925050509392505050565b6000819050919050565b6000819050919050565b6000620005246200051e6200051884620004ef565b620004f9565b620004ef565b9050919050565b6000819050919050565b620005408362000503565b620005586200054f826200052b565b84845462000499565b825550505050565b600090565b6200056f62000560565b6200057c81848462000535565b505050565b5b81811015620005a4576200059860008262000565565b60018101905062000582565b5050565b601f821115620005f357620005bd8162000467565b620005c8846200047c565b81016020851015620005d8578190505b620005f0620005e7856200047c565b83018262000581565b50505b505050565b600082821c905092915050565b60006200061860001984600802620005f8565b1980831691505092915050565b600062000633838362000605565b9150826002028217905092915050565b6200064e82620003f8565b67ffffffffffffffff8111156200066a5762000669620001e1565b5b62000676825462000432565b62000683828285620005a8565b600060209050601f831160018114620006bb5760008415620006a6578287015190505b620006b2858262000625565b86555062000722565b601f198416620006cb8662000467565b60005b82811015620006f557848901518255600182019150602085019450602081019050620006ce565b8683101562000715578489015162000711601f89168262000605565b8355505b6001600288020188555050505b505050505050565b613663806200073a6000396000f3fe6080604052600436106100e75760003560e01c8063715018a61161008a578063e5dca11111610059578063e5dca111146102e4578063e985e9c51461030d578063f242432a1461034a578063f2fde38b14610373576100e7565b8063715018a6146102625780638da5cb5b14610279578063a22cb465146102a4578063c8796572146102cd576100e7565b806323b16a93116100c657806323b16a93146101a357806326f6653c146101bf5780632eb2c2d6146101fc5780634e1273f414610225576100e7565b8062fdd58e146100ec57806301ffc9a7146101295780630e89341c14610166575b600080fd5b3480156100f857600080fd5b50610113600480360381019061010e9190611fd1565b61039c565b6040516101209190612020565b60405180910390f35b34801561013557600080fd5b50610150600480360381019061014b9190612093565b6103f7565b60405161015d91906120db565b60405180910390f35b34801561017257600080fd5b5061018d600480360381019061018891906120f6565b6104d9565b60405161019a91906121b3565b60405180910390f35b6101bd60048036038101906101b8919061223a565b61056d565b005b3480156101cb57600080fd5b506101e660048036038101906101e191906120f6565b6107c4565b6040516101f39190612535565b60405180910390f35b34801561020857600080fd5b50610223600480360381019061021e919061274a565b610973565b005b34801561023157600080fd5b5061024c600480360381019061024791906128dc565b610a1b565b60405161025991906129c3565b60405180910390f35b34801561026e57600080fd5b50610277610b24565b005b34801561028557600080fd5b5061028e610b38565b60405161029b91906129f4565b60405180910390f35b3480156102b057600080fd5b506102cb60048036038101906102c69190612a3b565b610b61565b005b3480156102d957600080fd5b506102e2610b77565b005b3480156102f057600080fd5b5061030b60048036038101906103069190612b7d565b610bcf565b005b34801561031957600080fd5b50610334600480360381019061032f9190612c59565b610e65565b60405161034191906120db565b60405180910390f35b34801561035657600080fd5b50610371600480360381019061036c9190612c99565b610ef9565b005b34801561037f57600080fd5b5061039a60048036038101906103959190612d30565b610fa1565b005b60006001600083815260200190815260200160002060008473ffffffffffffffffffffffffffffffffffffffff1673ffffffffffffffffffffffffffffffffffffffff16815260200190815260200160002054905092915050565b60007fd9b67a26000000000000000000000000000000000000000000000000000000007bffffffffffffffffffffffffffffffffffffffffffffffffffffffff1916827bffffffffffffffffffffffffffffffffffffffffffffffffffffffff191614806104c257507f0e89341c000000000000000000000000000000000000000000000000000000007bffffffffffffffffffffffffffffffffffffffffffffffffffffffff1916827bffffffffffffffffffffffffffffffffffffffffffffffffffffffff1916145b806104d257506104d182611027565b5b9050919050565b6060600380546104e890612d8c565b80601f016020809104026020016040519081016040528092919081815260200182805461051490612d8c565b80156105615780601f1061053657610100808354040283529160200191610561565b820191906000526020600020905b81548152906001019060200180831161054457829003601f168201915b50505050509050919050565b60006004600086815260200190815260200160002060010180549050036105c9576040517f08c379a00000000000000000000000000000000000000000000000000000000081526004016105c090612e09565b60405180910390fd5b8260046000868152602001908152602001600020600301546105eb9190612e58565b341461062c576040517f08c379a000000000000000000000000000000000000000000000000000000000815260040161062390612ee6565b60405180910390fd5b60005b600460008681526020019081526020016000206001018054905081101561076d5760046000868152602001908152602001600020600101818154811061067857610677612f06565b5b9060005260206000200160009054906101000a900473ffffffffffffffffffffffffffffffffffffffff1673ffffffffffffffffffffffffffffffffffffffff166323b872dd333087600460008b815260200190815260200160002060020186815481106106e9576106e8612f06565b5b90600052602060002001546106fe9190612e58565b6040518463ffffffff1660e01b815260040161071c93929190612f35565b6020604051808303816000875af115801561073b573d6000803e3d6000fd5b505050506040513d601f19601f8201168201806040525081019061075f9190612f81565b50808060010191505061062f565b506107be33858585858080601f016020809104026020016040519081016040528093929190818152602001838380828437600081840152601f19601f82011690508083019250505050505050611091565b50505050565b6107cc611e0d565b600460008381526020019081526020016000206040518060800160405290816000820180546107fa90612d8c565b80601f016020809104026020016040519081016040528092919081815260200182805461082690612d8c565b80156108735780601f1061084857610100808354040283529160200191610873565b820191906000526020600020905b81548152906001019060200180831161085657829003601f168201915b505050505081526020016001820180548060200260200160405190810160405280929190818152602001828054801561090157602002820191906000526020600020905b8160009054906101000a900473ffffffffffffffffffffffffffffffffffffffff1673ffffffffffffffffffffffffffffffffffffffff16815260200190600101908083116108b7575b505050505081526020016002820180548060200260200160405190810160405280929190818152602001828054801561095957602002820191906000526020600020905b815481526020019060010190808311610945575b505050505081526020016003820154815250509050919050565b600061097d61112a565b90508073ffffffffffffffffffffffffffffffffffffffff168673ffffffffffffffffffffffffffffffffffffffff16141580156109c257506109c08682610e65565b155b15610a065780866040517fe237d9220000000000000000000000000000000000000000000000000000000081526004016109fd929190612fae565b60405180910390fd5b610a138686868686611132565b505050505050565b60608151835114610a6757815183516040517f5b059991000000000000000000000000000000000000000000000000000000008152600401610a5e929190612fd7565b60405180910390fd5b6000835167ffffffffffffffff811115610a8457610a83612557565b5b604051908082528060200260200182016040528015610ab25781602001602082028036833780820191505090505b50905060005b8451811015610b1957610aef610ad7828761122a90919063ffffffff16565b610aea838761123e90919063ffffffff16565b61039c565b828281518110610b0257610b01612f06565b5b602002602001018181525050806001019050610ab8565b508091505092915050565b610b2c611252565b610b3660006112d9565b565b60008060009054906101000a900473ffffffffffffffffffffffffffffffffffffffff16905090565b610b73610b6c61112a565b838361139d565b5050565b610b7f611252565b610b87610b38565b73ffffffffffffffffffffffffffffffffffffffff166108fc479081150290604051600060405180830381858888f19350505050158015610bcc573d6000803e3d6000fd5b50565b610bd7611252565b60008803610c1a576040517f08c379a0000000000000000000000000000000000000000000000000000000008152600401610c119061304c565b60405180910390fd5b60008585905003610c60576040517f08c379a0000000000000000000000000000000000000000000000000000000008152600401610c57906130b8565b60405180910390fd5b828290508585905014610ca8576040517f08c379a0000000000000000000000000000000000000000000000000000000008152600401610c9f90613124565b60405180910390fd5b6000600460008a81526020019081526020016000206001018054905014610d04576040517f08c379a0000000000000000000000000000000000000000000000000000000008152600401610cfb90613190565b60405180910390fd5b604051806080016040528088888080601f016020809104026020016040519081016040528093929190818152602001838380828437600081840152601f19601f820116905080830192505050505050508152602001868680806020026020016040519081016040528093929190818152602001838360200280828437600081840152601f19601f820116905080830192505050505050508152602001848480806020026020016040519081016040528093929190818152602001838360200280828437600081840152601f19601f82011690508083019250505050505050815260200182815250600460008a81526020019081526020016000206000820151816000019081610e139190613352565b506020820151816001019080519060200190610e30929190611e35565b506040820151816002019080519060200190610e4d929190611ebf565b50606082015181600301559050505050505050505050565b6000600260008473ffffffffffffffffffffffffffffffffffffffff1673ffffffffffffffffffffffffffffffffffffffff16815260200190815260200160002060008373ffffffffffffffffffffffffffffffffffffffff1673ffffffffffffffffffffffffffffffffffffffff16815260200190815260200160002060009054906101000a900460ff16905092915050565b6000610f0361112a565b90508073ffffffffffffffffffffffffffffffffffffffff168673ffffffffffffffffffffffffffffffffffffffff1614158015610f485750610f468682610e65565b155b15610f8c5780866040517fe237d922000000000000000000000000000000000000000000000000000000008152600401610f83929190612fae565b60405180910390fd5b610f99868686868661150d565b505050505050565b610fa9611252565b600073ffffffffffffffffffffffffffffffffffffffff168173ffffffffffffffffffffffffffffffffffffffff160361101b5760006040517f1e4fbdf700000000000000000000000000000000000000000000000000000000815260040161101291906129f4565b60405180910390fd5b611024816112d9565b50565b60007f01ffc9a7000000000000000000000000000000000000000000000000000000007bffffffffffffffffffffffffffffffffffffffffffffffffffffffff1916827bffffffffffffffffffffffffffffffffffffffffffffffffffffffff1916149050919050565b600073ffffffffffffffffffffffffffffffffffffffff168473ffffffffffffffffffffffffffffffffffffffff16036111035760006040517f57f447ce0000000000000000000000000000000000000000000000000000000081526004016110fa91906129f4565b60405180910390fd5b6000806111108585611618565b91509150611122600087848487611648565b505050505050565b600033905090565b600073ffffffffffffffffffffffffffffffffffffffff168473ffffffffffffffffffffffffffffffffffffffff16036111a45760006040517f57f447ce00000000000000000000000000000000000000000000000000000000815260040161119b91906129f4565b60405180910390fd5b600073ffffffffffffffffffffffffffffffffffffffff168573ffffffffffffffffffffffffffffffffffffffff16036112165760006040517f01a8351400000000000000000000000000000000000000000000000000000000815260040161120d91906129f4565b60405180910390fd5b6112238585858585611648565b5050505050565b600060208202602084010151905092915050565b600060208202602084010151905092915050565b61125a61112a565b73ffffffffffffffffffffffffffffffffffffffff16611278610b38565b73ffffffffffffffffffffffffffffffffffffffff16146112d75761129b61112a565b6040517f118cdaa70000000000000000000000000000000000000000000000000000000081526004016112ce91906129f4565b60405180910390fd5b565b60008060009054906101000a900473ffffffffffffffffffffffffffffffffffffffff169050816000806101000a81548173ffffffffffffffffffffffffffffffffffffffff021916908373ffffffffffffffffffffffffffffffffffffffff1602179055508173ffffffffffffffffffffffffffffffffffffffff168173ffffffffffffffffffffffffffffffffffffffff167f8be0079c531659141344cd1fd0a4f28419497f9722a3daafe3b4186f6b6457e060405160405180910390a35050565b600073ffffffffffffffffffffffffffffffffffffffff168273ffffffffffffffffffffffffffffffffffffffff160361140f5760006040517fced3e10000000000000000000000000000000000000000000000000000000000815260040161140691906129f4565b60405180910390fd5b80600260008573ffffffffffffffffffffffffffffffffffffffff1673ffffffffffffffffffffffffffffffffffffffff16815260200190815260200160002060008473ffffffffffffffffffffffffffffffffffffffff1673ffffffffffffffffffffffffffffffffffffffff16815260200190815260200160002060006101000a81548160ff0219169083151502179055508173ffffffffffffffffffffffffffffffffffffffff168373ffffffffffffffffffffffffffffffffffffffff167f17307eab39ab6107e8899845ad3d59bd9653f200f220920489ca2b5937696c318360405161150091906120db565b60405180910390a3505050565b600073ffffffffffffffffffffffffffffffffffffffff168473ffffffffffffffffffffffffffffffffffffffff160361157f5760006040517f57f447ce00000000000000000000000000000000000000000000000000000000815260040161157691906129f4565b60405180910390fd5b600073ffffffffffffffffffffffffffffffffffffffff168573ffffffffffffffffffffffffffffffffffffffff16036115f15760006040517f01a835140000000000000000000000000000000000000000000000000000000081526004016115e891906129f4565b60405180910390fd5b6000806115fe8585611618565b9150915061160f8787848487611648565b50505050505050565b60608060405191506001825283602083015260408201905060018152826020820152604081016040529250929050565b611654858585856116fa565b600073ffffffffffffffffffffffffffffffffffffffff168473ffffffffffffffffffffffffffffffffffffffff16146116f357600061169261112a565b905060018451036116e25760006116b360008661123e90919063ffffffff16565b905060006116cb60008661123e90919063ffffffff16565b90506116db838989858589611aa5565b50506116f1565b6116f0818787878787611c59565b5b505b5050505050565b805182511461174457815181516040517f5b05999100000000000000000000000000000000000000000000000000000000815260040161173b929190612fd7565b60405180910390fd5b600061174e61112a565b905060005b8351811015611960576000611771828661123e90919063ffffffff16565b90506000611788838661123e90919063ffffffff16565b9050600073ffffffffffffffffffffffffffffffffffffffff168873ffffffffffffffffffffffffffffffffffffffff16146118b75760006001600084815260200190815260200160002060008a73ffffffffffffffffffffffffffffffffffffffff1673ffffffffffffffffffffffffffffffffffffffff1681526020019081526020016000205490508181101561185e57888183856040517f03dee4c50000000000000000000000000000000000000000000000000000000081526004016118559493929190613424565b60405180910390fd5b8181036001600085815260200190815260200160002060008b73ffffffffffffffffffffffffffffffffffffffff1673ffffffffffffffffffffffffffffffffffffffff16815260200190815260200160002081905550505b600073ffffffffffffffffffffffffffffffffffffffff168773ffffffffffffffffffffffffffffffffffffffff161461195357806001600084815260200190815260200160002060008973ffffffffffffffffffffffffffffffffffffffff1673ffffffffffffffffffffffffffffffffffffffff168152602001908152602001600020600082825461194b9190613469565b925050819055505b5050806001019050611753565b506001835103611a1f57600061198060008561123e90919063ffffffff16565b9050600061199860008561123e90919063ffffffff16565b90508573ffffffffffffffffffffffffffffffffffffffff168773ffffffffffffffffffffffffffffffffffffffff168473ffffffffffffffffffffffffffffffffffffffff167fc3d58168c5ae7397731d063d5bbf3d657854427343f4c083240f7aacaa2d0f628585604051611a10929190612fd7565b60405180910390a45050611a9e565b8373ffffffffffffffffffffffffffffffffffffffff168573ffffffffffffffffffffffffffffffffffffffff168273ffffffffffffffffffffffffffffffffffffffff167f4a39dc06d4c0dbc64b70af90fd698a233a518aa5d07e595d983b8c0526c8f7fb8686604051611a9592919061349d565b60405180910390a45b5050505050565b60008473ffffffffffffffffffffffffffffffffffffffff163b1115611c51578373ffffffffffffffffffffffffffffffffffffffff1663f23a6e6187878686866040518663ffffffff1660e01b8152600401611b06959493929190613529565b6020604051808303816000875af1925050508015611b4257506040513d601f19601f82011682018060405250810190611b3f9190613598565b60015b611bc6573d8060008114611b72576040519150601f19603f3d011682016040523d82523d6000602084013e611b77565b606091505b506000815103611bbe57846040517f57f447ce000000000000000000000000000000000000000000000000000000008152600401611bb591906129f4565b60405180910390fd5b805181602001fd5b63f23a6e6160e01b7bffffffffffffffffffffffffffffffffffffffffffffffffffffffff1916817bffffffffffffffffffffffffffffffffffffffffffffffffffffffff191614611c4f57846040517f57f447ce000000000000000000000000000000000000000000000000000000008152600401611c4691906129f4565b60405180910390fd5b505b505050505050565b60008473ffffffffffffffffffffffffffffffffffffffff163b1115611e05578373ffffffffffffffffffffffffffffffffffffffff1663bc197c8187878686866040518663ffffffff1660e01b8152600401611cba9594939291906135c5565b6020604051808303816000875af1925050508015611cf657506040513d601f19601f82011682018060405250810190611cf39190613598565b60015b611d7a573d8060008114611d26576040519150601f19603f3d011682016040523d82523d6000602084013e611d2b565b606091505b506000815103611d7257846040517f57f447ce000000000000000000000000000000000000000000000000000000008152600401611d6991906129f4565b60405180910390fd5b805181602001fd5b63bc197c8160e01b7bffffffffffffffffffffffffffffffffffffffffffffffffffffffff1916817bffffffffffffffffffffffffffffffffffffffffffffffffffffffff191614611e0357846040517f57f447ce000000000000000000000000000000000000000000000000000000008152600401611dfa91906129f4565b60405180910390fd5b505b505050505050565b6040518060800160405280606081526020016060815260200160608152602001600081525090565b828054828255906000526020600020908101928215611eae579160200282015b82811115611ead5782518260006101000a81548173ffffffffffffffffffffffffffffffffffffffff021916908373ffffffffffffffffffffffffffffffffffffffff16021790555091602001919060010190611e55565b5b509050611ebb9190611f0c565b5090565b828054828255906000526020600020908101928215611efb579160200282015b82811115611efa578251825591602001919060010190611edf565b5b509050611f089190611f0c565b5090565b5b80821115611f25576000816000905550600101611f0d565b5090565b6000604051905090565b600080fd5b600080fd5b600073ffffffffffffffffffffffffffffffffffffffff82169050919050565b6000611f6882611f3d565b9050919050565b611f7881611f5d565b8114611f8357600080fd5b50565b600081359050611f9581611f6f565b92915050565b6000819050919050565b611fae81611f9b565b8114611fb957600080fd5b50565b600081359050611fcb81611fa5565b92915050565b60008060408385031215611fe857611fe7611f33565b5b6000611ff685828601611f86565b925050602061200785828601611fbc565b9150509250929050565b61201a81611f9b565b82525050565b60006020820190506120356000830184612011565b92915050565b60007fffffffff0000000000000000000000000000000000000000000000000000000082169050919050565b6120708161203b565b811461207b57600080fd5b50565b60008135905061208d81612067565b92915050565b6000602082840312156120a9576120a8611f33565b5b60006120b78482850161207e565b91505092915050565b60008115159050919050565b6120d5816120c0565b82525050565b60006020820190506120f060008301846120cc565b92915050565b60006020828403121561210c5761210b611f33565b5b600061211a84828501611fbc565b91505092915050565b600081519050919050565b600082825260208201905092915050565b60005b8381101561215d578082015181840152602081019050612142565b60008484015250505050565b6000601f19601f8301169050919050565b600061218582612123565b61218f818561212e565b935061219f81856020860161213f565b6121a881612169565b840191505092915050565b600060208201905081810360008301526121cd818461217a565b905092915050565b600080fd5b600080fd5b600080fd5b60008083601f8401126121fa576121f96121d5565b5b8235905067ffffffffffffffff811115612217576122166121da565b5b602083019150836001820283011115612233576122326121df565b5b9250929050565b6000806000806060858703121561225457612253611f33565b5b600061226287828801611fbc565b945050602061227387828801611fbc565b935050604085013567ffffffffffffffff81111561229457612293611f38565b5b6122a0878288016121e4565b925092505092959194509250565b600082825260208201905092915050565b60006122ca82612123565b6122d481856122ae565b93506122e481856020860161213f565b6122ed81612169565b840191505092915050565b600081519050919050565b600082825260208201905092915050565b6000819050602082019050919050565b6000819050919050565b600061234961234461233f84611f3d565b612324565b611f3d565b9050919050565b600061235b8261232e565b9050919050565b600061236d82612350565b9050919050565b61237d81612362565b82525050565b600061238f8383612374565b60208301905092915050565b6000602082019050919050565b60006123b3826122f8565b6123bd8185612303565b93506123c883612314565b8060005b838110156123f95781516123e08882612383565b97506123eb8361239b565b9250506001810190506123cc565b5085935050505092915050565b600081519050919050565b600082825260208201905092915050565b6000819050602082019050919050565b61243b81611f9b565b82525050565b600061244d8383612432565b60208301905092915050565b6000602082019050919050565b600061247182612406565b61247b8185612411565b935061248683612422565b8060005b838110156124b757815161249e8882612441565b97506124a983612459565b92505060018101905061248a565b5085935050505092915050565b600060808301600083015184820360008601526124e182826122bf565b915050602083015184820360208601526124fb82826123a8565b915050604083015184820360408601526125158282612466565b915050606083015161252a6060860182612432565b508091505092915050565b6000602082019050818103600083015261254f81846124c4565b905092915050565b7f4e487b7100000000000000000000000000000000000000000000000000000000600052604160045260246000fd5b61258f82612169565b810181811067ffffffffffffffff821117156125ae576125ad612557565b5b80604052505050565b60006125c1611f29565b90506125cd8282612586565b919050565b600067ffffffffffffffff8211156125ed576125ec612557565b5b602082029050602081019050919050565b600061261161260c846125d2565b6125b7565b90508083825260208201905060208402830185811115612634576126336121df565b5b835b8181101561265d57806126498882611fbc565b845260208401935050602081019050612636565b5050509392505050565b600082601f83011261267c5761267b6121d5565b5b813561268c8482602086016125fe565b91505092915050565b600080fd5b600067ffffffffffffffff8211156126b5576126b4612557565b5b6126be82612169565b9050602081019050919050565b82818337600083830152505050565b60006126ed6126e88461269a565b6125b7565b90508281526020810184848401111561270957612708612695565b5b6127148482856126cb565b509392505050565b600082601f830112612731576127306121d5565b5b81356127418482602086016126da565b91505092915050565b600080600080600060a0868803121561276657612765611f33565b5b600061277488828901611f86565b955050602061278588828901611f86565b945050604086013567ffffffffffffffff8111156127a6576127a5611f38565b5b6127b288828901612667565b935050606086013567ffffffffffffffff8111156127d3576127d2611f38565b5b6127df88828901612667565b925050608086013567ffffffffffffffff811115612800576127ff611f38565b5b61280c8882890161271c565b9150509295509295909350565b600067ffffffffffffffff82111561283457612833612557565b5b602082029050602081019050919050565b600061285861285384612819565b6125b7565b9050808382526020820190506020840283018581111561287b5761287a6121df565b5b835b818110156128a457806128908882611f86565b84526020840193505060208101905061287d565b5050509392505050565b600082601f8301126128c3576128c26121d5565b5b81356128d3848260208601612845565b91505092915050565b600080604083850312156128f3576128f2611f33565b5b600083013567ffffffffffffffff81111561291157612910611f38565b5b61291d858286016128ae565b925050602083013567ffffffffffffffff81111561293e5761293d611f38565b5b61294a85828601612667565b9150509250929050565b600082825260208201905092915050565b600061297082612406565b61297a8185612954565b935061298583612422565b8060005b838110156129b657815161299d8882612441565b97506129a883612459565b925050600181019050612989565b5085935050505092915050565b600060208201905081810360008301526129dd8184612965565b905092915050565b6129ee81611f5d565b82525050565b6000602082019050612a0960008301846129e5565b92915050565b612a18816120c0565b8114612a2357600080fd5b50565b600081359050612a3581612a0f565b92915050565b60008060408385031215612a5257612a51611f33565b5b6000612a6085828601611f86565b9250506020612a7185828601612a26565b9150509250929050565b60008083601f840112612a9157612a906121d5565b5b8235905067ffffffffffffffff811115612aae57612aad6121da565b5b602083019150836001820283011115612aca57612ac96121df565b5b9250929050565b60008083601f840112612ae757612ae66121d5565b5b8235905067ffffffffffffffff811115612b0457612b036121da565b5b602083019150836020820283011115612b2057612b1f6121df565b5b9250929050565b60008083601f840112612b3d57612b3c6121d5565b5b8235905067ffffffffffffffff811115612b5a57612b596121da565b5b602083019150836020820283011115612b7657612b756121df565b5b9250929050565b60008060008060008060008060a0898b031215612b9d57612b9c611f33565b5b6000612bab8b828c01611fbc565b985050602089013567ffffffffffffffff811115612bcc57612bcb611f38565b5b612bd88b828c01612a7b565b9750975050604089013567ffffffffffffffff811115612bfb57612bfa611f38565b5b612c078b828c01612ad1565b9550955050606089013567ffffffffffffffff811115612c2a57612c29611f38565b5b612c368b828c01612b27565b93509350506080612c498b828c01611fbc565b9150509295985092959890939650565b60008060408385031215612c7057612c6f611f33565b5b6000612c7e85828601611f86565b9250506020612c8f85828601611f86565b9150509250929050565b600080600080600060a08688031215612cb557612cb4611f33565b5b6000612cc388828901611f86565b9550506020612cd488828901611f86565b9450506040612ce588828901611fbc565b9350506060612cf688828901611fbc565b925050608086013567ffffffffffffffff811115612d1757612d16611f38565b5b612d238882890161271c565b9150509295509295909350565b600060208284031215612d4657612d45611f33565b5b6000612d5484828501611f86565b91505092915050565b7f4e487b7100000000000000000000000000000000000000000000000000000000600052602260045260246000fd5b60006002820490506001821680612da457607f821691505b602082108103612db757612db6612d5d565b5b50919050565b7f494420646f65736e742065786973740000000000000000000000000000000000600082015250565b6000612df3600f8361212e565b9150612dfe82612dbd565b602082019050919050565b60006020820190508181036000830152612e2281612de6565b9050919050565b7f4e487b7100000000000000000000000000000000000000000000000000000000600052601160045260246000fd5b6000612e6382611f9b565b9150612e6e83611f9b565b9250828202612e7c81611f9b565b91508282048414831517612e9357612e92612e29565b5b5092915050565b7f496e76616c696420666565207061696400000000000000000000000000000000600082015250565b6000612ed060108361212e565b9150612edb82612e9a565b602082019050919050565b60006020820190508181036000830152612eff81612ec3565b9050919050565b7f4e487b7100000000000000000000000000000000000000000000000000000000600052603260045260246000fd5b6000606082019050612f4a60008301866129e5565b612f5760208301856129e5565b612f646040830184612011565b949350505050565b600081519050612f7b81612a0f565b92915050565b600060208284031215612f9757612f96611f33565b5b6000612fa584828501612f6c565b91505092915050565b6000604082019050612fc360008301856129e5565b612fd060208301846129e5565b9392505050565b6000604082019050612fec6000830185612011565b612ff96020830184612011565b9392505050565b7f4e6f204944000000000000000000000000000000000000000000000000000000600082015250565b600061303660058361212e565b915061304182613000565b602082019050919050565b6000602082019050818103600083015261306581613029565b9050919050565b7f4e6f20746f6b656e730000000000000000000000000000000000000000000000600082015250565b60006130a260098361212e565b91506130ad8261306c565b602082019050919050565b600060208201905081810360008301526130d181613095565b9050919050565b7f546f6b656e73206c656e677468206d69736d6174636800000000000000000000600082015250565b600061310e60168361212e565b9150613119826130d8565b602082019050919050565b6000602082019050818103600083015261313d81613101565b9050919050565b7f49442074616b656e000000000000000000000000000000000000000000000000600082015250565b600061317a60088361212e565b915061318582613144565b602082019050919050565b600060208201905081810360008301526131a98161316d565b9050919050565b60008190508160005260206000209050919050565b60006020601f8301049050919050565b600082821b905092915050565b6000600883026132127fffffffffffffffffffffffffffffffffffffffffffffffffffffffffffffffff826131d5565b61321c86836131d5565b95508019841693508086168417925050509392505050565b600061324f61324a61324584611f9b565b612324565b611f9b565b9050919050565b6000819050919050565b61326983613234565b61327d61327582613256565b8484546131e2565b825550505050565b600090565b613292613285565b61329d818484613260565b505050565b5b818110156132c1576132b660008261328a565b6001810190506132a3565b5050565b601f821115613306576132d7816131b0565b6132e0846131c5565b810160208510156132ef578190505b6133036132fb856131c5565b8301826132a2565b50505b505050565b600082821c905092915050565b60006133296000198460080261330b565b1980831691505092915050565b60006133428383613318565b9150826002028217905092915050565b61335b82612123565b67ffffffffffffffff81111561337457613373612557565b5b61337e8254612d8c565b6133898282856132c5565b600060209050601f8311600181146133bc57600084156133aa578287015190505b6133b48582613336565b86555061341c565b601f1984166133ca866131b0565b60005b828110156133f2578489015182556001820191506020850194506020810190506133cd565b8683101561340f578489015161340b601f891682613318565b8355505b6001600288020188555050505b505050505050565b600060808201905061343960008301876129e5565b6134466020830186612011565b6134536040830185612011565b6134606060830184612011565b95945050505050565b600061347482611f9b565b915061347f83611f9b565b925082820190508082111561349757613496612e29565b5b92915050565b600060408201905081810360008301526134b78185612965565b905081810360208301526134cb8184612965565b90509392505050565b600081519050919050565b600082825260208201905092915050565b60006134fb826134d4565b61350581856134df565b935061351581856020860161213f565b61351e81612169565b840191505092915050565b600060a08201905061353e60008301886129e5565b61354b60208301876129e5565b6135586040830186612011565b6135656060830185612011565b818103608083015261357781846134f0565b90509695505050505050565b60008151905061359281612067565b92915050565b6000602082840312156135ae576135ad611f33565b5b60006135bc84828501613583565b91505092915050565b600060a0820190506135da60008301886129e5565b6135e760208301876129e5565b81810360408301526135f98186612965565b9050818103606083015261360d8185612965565b9050818103608083015261362181846134f0565b9050969550505050505056fea264697066735822122000dc7bebecc71f4e8d12d7dd142775286cffc2b341538173cc003c1d0f7317ce64736f6c63430008180033",
  "linkReferences": {},
  "deployedLinkReferences": {}
}